:020000040000FA
:80000000FFFF62FF3900FFFFFFFFFFFFFFFFFFFFFFFFFFFFFFFFFFFFFFFFFFFFFFFFFFFFFFFFFFFFFFFFFFFFFFFFFFFFFFFFFFFFFFFFFFFFFFFFFFFFFFFFFFFFFFFFFFFFFFFFFFFFFFFFFFFFFFFFFFFFFF800C9001324006C840110031200AC480A80265048A4011300245804C9001000000000000000000000000000000000C9001320051
:8000800026C80419280245A00818A8225004401488320245A008900140FE0017E0025C800B70012A800A50012A4005B4800A50012A4005A8003FE0020000000000000000000000000000000012E0025C001DF0032E4005A80015A00554800AA002544005A80015E00298FF00000000000000000000000000000000000000000000000000CC
:80010000000000000000000000000000000000000000000000000000000000000000000000000000000000000000000000000000000098FF0000000000000000000000000000000000000000000000000000000000000000000000000000000000000000000000000000000000000000000000000000000000000000000000000000009850
:80018000FF000120000480001000000000000000000000000000000000000000E12000000000000000000000000000000000000020000500101002020000000000000000000000000000000000002000F0FC4E04080004000A60000000000000000000000000000000000000000400040000000000000000004000000000000000C0001015
:800200001000400502000000000000000000000000000000000000A08003FA00000000000000000000000000000004000000000000000000000000040000000000000000000000000000000000000000000000004000000000000000000010001240030800002000000028FB00000000000000000000000000000000000000000000000012
:8002800000000000000000000000000000000000000000000000000000000000000003000000000000000000000808030000000000000020FF0000000000000000000000000000000008000000000000000000000000200000000000000000000000000000000000000000000000C003000000000000000000201008035000004001000012
:8003000090FA000000000000000000000000000000300100000000000000000000003002000000000000000000000000000000000000000000000000000000000000000000C004180103200000A000000060FA0000000000000000000000000000000004000000000000000000000000020000000000000000000000000000000000000090
:8003800000000000800100000000000000000048100888300000C0000000E8F80000000000000000000000000000003C0000000000000000000000003C10000000000000000000000000000000000000000000000040020000000000000000F0001EC0004800002001000038FD00000000000000000000000000000030000000000000005E
:8004000000000000003000000000000000000000000000000000000000000000000000020000000000000000C00018080040000000010000E0FA000000000000000000000000000000300900000000000000000000003009000000000000000000000000000000000000000000000000010000000000000000C0245C0000200000800000FC
:800480000038FD000000000000000000000000000000040000000000000000000000000400000000000000000000000000000000000000000000000040000000010000000000100092480308000020000000FCFE000000000000000000000000000000000000000000000000000000000000000000000000000C000000000000000600005D
:8005000000000000000000000000000000000000000000030000000000000070FE00000000000000000000000000000000080000000000000000000000002000000000000000080000000000000004000000000000008002000000080000000000201804835800004001000080FF0000000000000000000000000000003001000000000044
:8005800000000000000030020000000000000000000000000000000000000000000000000100008C0000000000C004900008200000A00000001BFE0000000000000000000000000000000002000000000000000000000000110000000000000000000000000000000000000000000000800100004004000000000042180003300000C000E2
:80060000000009FB0000000000000000000000000000003C1000000000000000000000003C000000000000000000000000000000000000000000000000400200000F0000000000F0001E480348000020010000D8F90000000000000000000000000000003000000000000000000000000030000000000000000000000000000000000000AA
:80068000000000000000000200000C0000000000C00018040040000000010000D3F90000000000000000000000000000003008000000000000000000000030080000000000000000000000000000000000000000000000000100000C0200000000C0205800032000008000000020FD30000000000000000000000000000004000000000058
:8007000000000000000000240A0000000000000000000000000000000000000000000000400000000D000000000010880040000800002000000060FE0000000000000000000000000000000000000000000000000000000010000000000000000000000000000000000000000000000000000000000C000000000000000000000000000084
:80078000000000C0FA0000000000000000000000000000000008000000000000000000000020000000000000000000000000000000000000000000000000800200000E000000000000000080025000004001000060FB0C000000000000000000000000000030020000000000000000000000300800000000000000000000000000000000A3
:8008000000000000000000000100000D00000000000044004001200000A000000090FF8421000000000000000000000000000002000000000000000000000020010000000000000000000000000000000000000000000000800100000C00000000008084008001300000C000000018FFE001000000000000000000000000003C1000000088
:8008800000000000000000003C100000000000000000000000000000000000000000000000400200000E000000000030000040824800002001000008F88C01000000000000000000000000003000000000000000000000000030200000000000000000000000000000000000000000000000000200000C0000000000004000000240000064
:800900000001000068FE800100000000000000000000000000B0080000000000000000000000B8000000000000000000000000000000000000000000000000000100000D0000000000000800009120000080000000C0FB000000000000000000000000000000040000000000000000000000002402000000000000000000000000000000F3
:800980000000040000000000400000000D000000000010441A400008000020010000A4FA0000000000000000000000000000000000000000000000000000000000080000000000000000000000000000000000000000000000000000000C000000000000001800000000008000000058FA000000000000000000000000000000000800002B
:800A000000000000000000000030080000000000000000000000000000000000000000000000800200000E000000000000800080025800004001000078FA0000000000000000000000000000003001000000000000000000000020020000000000000000000000000000000000B01000000000000100000D00000000000008004001200017
:800A800000A00000000BF900000000000000000000000000000000010000000000000000000000300A0000000000000000000000000000000000800000000000800100000C00000000000088188001300000C000000049FE0000000000000000000000000000003C2000000000000000000000003C0000000000000000000000000000001A
:800B00000000003C2000000000400200000E000000000030001A40824800006001000098FD0000000000000000000000000000003000000000000000000000000030100000000000000000000000000000000000300000000000000200000C00000000000000000002400000800000004BFD000000000000000000000000000000300A008D
:800B80000000000000000000000030000000000000000000000000000000000000300A00000000000100000C0000000000804400009120000000010000A8F910000000000000000000000000000004000000000000000000000000040000000000000000000000000000000000002408000000004000000089000000000010880240020876
:800C00000000A0010000B4FD000000000000000000000000000000000000000000000000000000000000000000000000000000000000000000000010000000000000000000040200000000000000000100000080800000D0F9000000000000000000000000000000000000000000000000000000000008000000000000000000000000003A
:800C800000000000200800000000C002000008020000000000401480025000008081000028FA0C000000000000000000000000000000000000000000000000000000B0000000000000000000000000000000000000300000000000000100000C000000000000080840012000008011000043FF0400000000000000000000000000008010E6
:800D00000000000000000000000000000600000000000000000000000000000000002011000000008001000048000000000080000C80013000000001010039FB0000000000000000000000000000000C0000000000000000000000003C0000000000000000000000000000000000003C0000000000400200000F0400000000304012C08263
:800D8000480000E000000060FF0C00000000000000000000000000003020000000000000000000000030200000000000000000000000000000000000301000000000000200000C0000000000008010000140000080810000ABFB00000000000000000000000000000030020000000000000000000000300000000000000000000000000098
:800E00000000000000380000000000000100004E10000000000008080092200000C0000000A8FE2000000000000000000000000000000400000000000000000000000004000000000000000000000000000000000000240A000000004000000089020000000010000240000800002089000024FF000000000000000000000000000000006C
:800E8000000000000000000000000000000000000000000000000000000000000000000000000000000000000000000000000000000000000000000000000098FF0000000000000000000000000000000008000000000000000000000000200000000000000000000000000000000000302000000000800200000C08000000000000140039
:800F0000805800008081000088FD08000000000000000000000000000030010000000000000000000000300200000000000000000000000000000000002001000000000001000048000000000000000A00202000000009000053FD802100000000000000000000000000001100000000000000000000008010000000000000000000000059
:800F8000000000000000300800000000800100008C000000000000080C000B3000008001000031FBE001000000000000000000000000003C0000000000000000000000003C0000000000000000000000000000000000003C0000000000400200000F0200000000304012C080480000E081000020FB840100000000000000000000000000BD
:801000003008000000000000000000000030080000000000000000000000000000000000300000000000000200000C0000000000C0201000004000008001000073F9800100000000000000000000000000B0000000000000000000000000B0000000000000000000000000000000000000304100000000000100004C0400000000C0080832
:8010800000A02000008085000060FB100000000000000000000000000000040000100000000000000000000400000000000000000000000000000000000004800000000040020200010000000000100002400008000020013400BCFA000000000000000000000000000000000000000000000000000000000000000000000000000000007A
:801100000000000000000000000000000000000000000000000000000000000300000080803000A0FF000000000000000000000000000000000800000000000000000000000020000000000000000000000000000000000000000000000080020200000800000000000014C00350000000813C0098FC0C0000000000000000000000000065
:80118000003002000000000000000000000030020000000000000000000000000000000000301216020000001000008C000000000000000800002000008011340023FF04000000000000000000000000000000110000420000000000000000000400000000000000000000000000000000008000200200008002000080040000000000087B
:801200000C80013000000001000A01FB0000000000000000000000000000003C0000300000000000000000003C0000000000000000000000000000000000003CA007000000C00200000F00000000003040124002480000E0410C0018F90C0000000000000000000000000000300800C0400000000000000000300800000000000000000088
:801280000000000000000000300806010000000200000C0200000000C0001000024000008001000043F8000000000000000000000000000000300000C008000000000000000030000000000000000000000000000000000000300006000000000200000C0000000000C028080001200000C041000088FB00000000000000000000000000D0
:8013000000000400001000000000000000000034000000000000000000000000000000000000040000D000000000000001000000000010000240020800002089040048FD0000000000000000000000000000000000000000000000000000000030000000000000000000000000000000000000000000C00000000000000000000000000012
:80138000000000010000000000000020F90000000000000000000000000000000000000020000000000000000030000000000000000000000000000000000000000000F0000000000000000000000000000014C0025800008001000098FE000000000000000000000000000000000000C00000000000000000003009000000000000001045
:80140000000000000000000800301200C000000000000000000000000000000A000120000000513021BAF90000000000000000000000000000008010000002000000000000000030000200000000000000010000000000000000000100C000000000000040000000000000080C800130000080010002A0FB00000000000000000000000039
:801480000000000C0000F08000000000000000003C1004000000000000100200000000000008003C2000E0000000000000030200000000304012C002480000E0813C1000FE000000000000000000000000000000300000C020000000000000000000800400000000000050020000000000000800300800C00000000000000C00000000009C
:80150000C00010000140000080013008C9F8000000000000000000000000000000B02000C0040000000000000000B0080400000000000000020000000000000000300100C00000000000002C0200000000C0220800022000008045300028F8100000000000000000000000000000000000000000000000000000000000040000000000003A
:801580000002000000000000000000000000000000000000000000000000000000000000000000000000ACFF20000480001000024000080001200004800010000240000800012000040000000000000000000000000000000020000480001000024000080001200004800010000240000800012000040098FF000000000000000000000063
:801600000000000000000000000000000000000000000000000000000000000000000000000000000000000000000000000000000000000000000000000000000000000098FF2C000480001000024000080001200004800010000240000800012000040000000000000000000000000000000020000480001000024000080081240004807E
:801680000010000240000800012000040063FC040000000000000000000000000000000000000000000000000000000000000000000000000000000000000000000000000000100000000000200000000000000000000000000000000000F9FA200004800010000240000800012000048000100002400008000120000400000000000000C3
:8017000000000000000000000020000480005000024000080000240004800010000240000800012000000088FA0C0000000000000000000000000000000000000000000000000000000000000000000000000000000000000000000000000000000000000000000000000000000000100001400000000100A3F92000048000100002400096
:801780000800012000048000100002400008000120000400000000000000000000000000000000200004800010000240080A00802400048000100082401008020120080404F0FB0000000000000000000000000000000000000000000000000000000000000000000000000000000000000000000000000000000000000000000000000085
:80180000000000000000000000000000000098FF00000000000000000000000000000000000000000000000000000000000000000000000000000000000000000000000000000000000000000000000000000000000000000000000000000098FF00000000000000000000000000000000000000000000000000000000200000000000001A
:8018800000000000000000000000000000000000000000000000000000000000000000000000000000000000B8FD000000000000000000000000000000000000000000000000000000000000000000000000000000000000000000000000000000000000000000000000000000000020000000000000020000B8FF0000000000000000005A
:8019000000000000000000000000000000000000000000000400000000000000000000000000000000000000000000000000000000000000000000000000000000000000008041FE000000000000000000000000000000000000000000000000000000000000000000000000000000000000000000000000000000000000000000000000A4
:8019800000000000000000000000000000000098FF00000000000000000000000000040000000000000000001000000000000000000000000000000000000000000000000000000000000080000000000000000000000004000000000000000058FE000000000020000008000000000000000000000000000000000000000000000000003A
:801A0000000000000000000000000000000000000000000000000000000000000000000000000000000000000018FD08050000001000001000000000042D00000000000000001000000000A00800000000000000000000000000000000000000000000000000010000000000001400200008000000000000000080FD800000000080200061
:801A80000000000000C09E0200000010000000000000000000000000000000000000000000000000000000040000000000000000000002000000500A0010008020100000000000D0FF400000000000800000000000004000000000000000000000000000000000000000000000000000000000000000000000000000000000000000000285
:801B00000000000000000000802010000000000000FB020000000010000000000000000000000000004000000000000000000000000000000000000000000000000000000000000000000000000000000000000000000008000000000000000080E1F900000000000000000000000000000000000000000000000000000000000000000006
:801B800000000000000000000000000000000000000000000000000000000000000000000000000000000000000098FF00000000000000000000000000000000000000000000000000000000000000000000000000000000000000000000000000000000000000000000000000000000000000000000000000000098FF00000000000000B7
:801C0000000000000000000000000000000000000000000000000000000000000000000000000000000000000000000000000000000000000000000000004400000001000004000088FE10000000000000000000000000000000000000000000000000000000000000000000000000000000000000000000001000000000000080000000F5
:801C800000000000000000000000000000000000004CFA02000000000000000000000000000000000000000000000000000000000000000000000000000000000000000000000000000000000000000000000000000000000000000000000000008030FD0400000000000000000000000000000000000000000000000000000000000000EB
:801D000000000000000000000000000000000000000000000000000000000000000000000000000000000000000000C9FA00000000000000000000000000000000000000000000000000000000000000000000000000000000000000000000000000000000000000000000000000000000000000000000000000000098FF00000000000009
:801D800000000000000000000000000000000000000000000000000000000000000000000000000000000000000000000000000000000000000000000000000000000000000000000098FF0000000000000000000000000000000000000000000000000000000000000000000000000000000000000000000000000000000000000000004C
:801E00000808000000000000000000000000000000005CFB200000000000000000000000000000000000000000000000000000000000000000000000000000000000000000000000000000000000000000000000000000000000000000000000000000B8FF0000000000000000000000000000000000000000000000000000000000000024
:801E8000000000000000000000000000000000000000000000000008000000000000000000000000000000000000000090FF00000000000000000000000000000000000000000000000000000000000000000000000000000000000000000000000000000000000000000000000000000000000000000000000000000098FF0000000000B4
:801F00000000000000000000000000000000000000000000000000000000000000000000000000000000000000000000000000000000000000000000000000000000000000000000000098FF0200000000000000000000000000000000000000000000000000000000000000000000000000000000000000000000000000000000000000C8
:801F800000000000000000000000000000000000000000B8FD00000000000000000000000000000000000000000000000000000000000000000000000000000000000000000000000000000000000000000000000000000000000000000000000000000098FF0000000000000000000000000000000008000000000000000000000000008D
:8020000000000000000000000000000000000000002000040000000000000000000000000000000000000000000000000010F900000000000000000000000000000000000000000000000000000000040000000000000000000000000000000000000000000000000000000000000000000000000000000000000000000098FB000000009C
:802080000000000000000000000000000000000000000000000000000000000000000000000000000000000000000000000000000000000000000000000000400000000000000000000000D8FF00000000000000000000000000000000080000000000000000000000100000000000000000000000000000000000000008000000000000A9
:802100000000000000000000400000000000000000000480C0FA02000000000000000000000000000000000000200000000000000000000000000000000000000000000000000000000008000000000000000000000000000000110000000000000000000080FF000000000000000000000000000000000000000000000000000000000027
:8021800000000000000000000000000000000000000000000000000000000000000000000000000000000000000000004000FAF900000000000000000000000000000000000000000000000000000000000000000000000000000000000000000000000800001000000000000000000000000000000000000000000000000018FE0000007E
:8022000000000000000000000000000000000000000000000000000000000000000000000000000000000000000000000000000000000000000000000000000000000000000000000000000098FF000000000000000000000000000000000000000000000000000000000000000000000000000000000000000000000000000200000000C5
:80228000000000040000000000000000000000000000000000D8F9008000000000000000000000020000080000000000000000000000000000000000000000000000000000000000000000000000000000800000040200000000000000000100000080400000B0FA08200000002000000000000000000000000000000000000000004040C6
:802300000000000000000000000000000000000000000000080000000000000000000000000000004000000001000000001000B8FE0080010000100000000000000200001805020000000000000000202801000000000000000000000000000000000000002514000000000001000204000000A200800080000200004080040070FF00211B
:80238000000084800010000140000080500100190000000002401008400B0004000000000000000000000000000000000000000B00000000030000040000000030401000000120100000000400A8F90000000000000000400000000040200000000000000000002000000000000000000000000000000000000000000000000002000000CB
:802400008000000004000000000040000000012010000000000060F8404000008110000400001000000000000000000000800010000280000008000000000000000000000000000000000000000000000080000000000000000000002000000000000000000000A0FF10000000000000000000000000000000000000000000000000000081
:80248000000000000000000000000000000000000000000000000000000000000000000000000000000000000000000000000000CCFB00000000000000000000000000000000000000000000000000000000000000000000000000000000000000000000000000000000000000000002000000000020000000000000000000000098FD005E
:80250000000000000000000000000000000040000000000000000000000000400000000000000000000000000000000000000000000000000000000020000000000000000800000000000000000038FB0000000000000000000000000000001000000000000000000000000050000000000000000000000000000000000000000000000020
:8025800000000000000000000000000000080000000000C0010000C0FF000000000000000000000000000000100000400000000000000000000000000000000000000000000000000000000000000000000000000000000000000000000100000000000000000000C8FE00000000000000000000000000000000000000000000000000003C
:802600000000800000000000000000000000000000000000000000000000000000000000000000000000000000000000000000001090FE00000000000000000000000000000000000000000000000000000000000000000000000000000000000000000000002000000000000000000000000000000000000000000000000000000098FD87
:8026800000000000000000000000000000000000000040000000000000000000080400000000000000000000000000000000000000000000000000000000010000000000020000000000000000000010FC000000000000000000000000000000000000000000000000000000000000000000000000000000000000000000000080200000DF
:8027000000000000000000000000000000000000000000000000000030FF000000000000000000000000000000040400000000000000000000000400000000000000000000000000000000000000000000000000000000180000000000000000000000000000000000C0FB0800000000000000000000000000000000000000000000000043
:80278000000000000000000000000000000000000000000000000000000000000000000000000000000000000080000000004000000010FB000000000000000000000000000000000000000000000000000000000000000000000000000000000000000000000000000000000000000000000000000000000000000000000000000000DC32
:80280000FB00000000000000020000000000A00104000010000200006800012000040900000000000000000000000000000020040080001000004000680000000000000000000040030804000000000008FA000000000000000000000000008001000000C00000000060000000000000000000000000000000000000000000008000000040
:802880000000000000600000000000000000000000000010000000000038FF000000000000000000000000000080000000004000000000000062003C10000000000000000000000000000000000100800130000000006000000000000000000000C0801800000000000060FF000000000000000000000000008001000000C00000000000B9
:80290000002C2000000100000000000000000000000000000000010180001000000083600000000000000000000000206010000000000088FA000000000000000021000000008089B00800C0800021000044408021100A0000000000000000000000000000008010000006C2440000200111000000000000000000001352000000000000CE
:8029800028FC0000000000000006000000000060003C0000F00006000018000FE8012800000000000000000000000000000000E040008007F00000C0031800000000000000000000800040000000000000A0FE000000000000001800000000008001300000C04018100000200C80013008000000000000000000000000000000000000003D
:802A000006C000000003000000000000000000000000834000000000000008FB000000000000005808000000004028300000200818010000024C8201B0000000000000000000000000000000000008020006C000000093000000000000000000000000082000000000000068FF00000080440400020000000000200034800010000200006B
:802A8000000001000000000000000000000002000000000000002100008000100802400000000D000000000000000040000801010000000004FF0000000002000000000000000080013000000000000000000000000000000000000000000000000000000000000000000000008000000000000C000000000000000000000010000000002F
:802B00000068F90000000004020000000000000000000010000040000000000000020000000000000000000000000000000000006000000000800006000000000C0000000000000000000018000002000000C8FD000000002600009804000000000090300000C00858040000002C00000000000000000000000000000000000000200000D9
:802B80000000804200000000000C0000000000000000000068114C000000000BFE000000004402004000000000008091301106C4480009000000200400000000000000000000000000000000000080850000104080180520000040020000000000000000005000200400000099FC000000800700001E1000000000E0010C8007F0001E008E
:802C00000000000F00000000000000000000000000000000000000E00100800171001EC0000100030000000000000000C00041000F0000000058FF000000000600001800000000008081300006C00018000000000C00000000000000000000000000000000000000800100000604401800030000000000000000000000000340000C0000BB
:802C800000009BF8000000001702001804000000008011082006C01418040000000C02000000000000000000000000000000000000800100002600001800130100000000000000000000002322000C0200000028FE10000080040200020000000001A00104000010000200000000010000042200000000000000000000000000000020016B
:802D000002801012021B400000000D0000000000000000400308000100000000C0FB0000000000000000000000000080013000000000000000000000000000000000000000000000000000000000008001000000000018000000000C0000000000000000000000000000000000E0FB00000000060200000000000000C00100000000000044
:802D80000000000000020000000000000000000000000000000000000000000004804000080000000E0000000000000000C0807800000200000088F80C000000140000980400000000A001801000C04800000000002C000000100000000000000000000000000000008040000044840418008300000D0000000000000000000068004C00A4
:802E000000000028FE0400000046040040080000004C040830120000088108000000200000002100000000000000000000000000000000110000024000980808000040020000000000000000635000200000000090F9000000800700001E000000000F60803C0000F00006000000000F08000C000000000000000020000000000000007018
:802E800000018003712006C0030200030000000000000000800020000F0800000088FA0C00000006040018000000000C0000301000C00018080000000C00000000000000000000000200000000000000010100000000001800030000000000000000000000008320000C0000000098F90000000016000058040000000C0000300200C088F9
:802F000058000000002C020010410000000000000000000000000000000284000000020005028B0000000000000000000000001040002C0200000028FE00000480441400020000000000200034000010000200000000010000040000000000000000080000000000000024000480009048024000000001000000800000000240004800019D
:802F80000000000028F8000030000200000000000000000000300000C000000000000000000000000000000000000024000000000000000800000000C0001800000000000000000000000018000020000000000000D0FE00003C00040200000000000000600038000000400000000000000200000800000000000000000000000000000061
:8030000081410C00060080000400000002000000000000001E000050000002000000F0FE0C0000002600009804000000000000340000C00000000000002C00003001000000000000000200000000000000010400000041048000830000010000000000000000000020004C0000000038F80400180084C0400009000000008051800000C0D3
:8030800018000200000000040000020000000000000010000000000000008841B00806810218090004002C000000008600000C000834000010000000E8FC0000208007F0001E0000000000E0010C1000300006000000000F00003C20000000000000000A00000000000000E1013C800730401EC00300000F0200008007000010C000500078
:803100000F0000000058F80C00200006C0001800000000008001000000C04018000000000C000030000000000000000000000000000000008441300006810018080300000C0000000006000010000320000C00000000F0FE0000100007C4001805000000008001000000E00898040000008C0200300A00000000000000000000000000006E
:8031800000801130001600801801A300000C0000000006000008000341008C0200000090FF30112580041200000000080000200004000090441A0000484401A0013400000000000000001200000000000000240034804410001A000068000100000000000000424400000001200004000CF88000100000C000000000000000800100000088
:80320000000000000020000080010000000000000000000000000000000000000030000602001800006000000000000000000000000000000000000000C8FB00812C0006004000000000000000000C0000C000180400402000C20130080000000000000012000000000000008901380000C0001800007000030000000000000006040001DA
:80328000000002000D00B0F98C09100024C8000000000000008009020000802218010060022CA0013002000000000000001000000000000000009034002201221800006800010000000000000058001300004C8001000093FB04011A0046C4800000006021008001300800C048001000402440040000A002000000000000400100000000F8
:8033000000008911000A24C02200040000118C080000000000001400080100000408300809F8F801288007F000000000780000E0413C0000F00006000078000F60400C00000000000000008200000000000000E4810C8001F40006000018000F0000000000000010C00300000FE0813C0060FB8801110006C44000000060000080013000DE
:8033800000C02000000060000C020000100800000000000008020000000000008181000004C20000000000000C0000000000000010008300000C824130002BF9C00520002620080000006000004080300000C00400080070248C00000001000000000000000C000000000000008411000010C02800000000000C0000000000000008002393
:8034000000008C80113000E8F9308100804414000240000000002011048044140002000048200120000480040000000000008000000000000000210004800090081B4000080001000000000000000245000000010000340078FD000000000200000000000000000080300002C0000000000000000000000005000000000000900200000016
:803480000000000400000000C0001800000000000000000000000000000000000000003000C8FB800100000402400000000000008001010004020000000060000060000008000000000000000200000000000000010008000600001C0000180003000000000000000604000000000200380088FC0C89000026C00898040000000000113076
:803500004126C00459040040220000003001080000000000008C00000000000000010004001048241A0083080000000000000000001A000000004C00003400E2FD8411010024C2488008630000008001320224C002802000604480905100110000000000000000020000000000001000300926804000040861244C000000000000001400DB
:803580000800008004000002B0FFF801008007F0001EC003000000E0013C8807F4401E0000780003E0013C000200000000000000010000000000006A403C8007320006C00378000F0200000000000010C00001000F00000C20B8F98881000006C0401804030000008001310006C00018040060200C88013088000000000000004A0000001D
:80360000000000008001310006800000008360000C0000000000000010000300000C0200000019FE8011000017C4045800030000008001081087204058000060042C8001B000000000000000000C000000000000008009300016020201000B60000C0000000000000008008300002C0000000088FF1000008004020002000000000020003A
:80368000248204920882040000000120003400020000000000000001000000000000B001048006D00002400008000D0000000000000002440000000100000400BCF90000000000000000000000000000000010000040000000000000000000000000000000000088010000000000008001000006C00000000000000C00000000000000001A
:8037000000000000000000000018FD000000000600000000000000004000300006C0001E00000000004200088001000000000000020000000000000084010C0006C000040000100000040000000000000604000200000200000020F90C0000000402009804000000002000202224842800080000002C2000048A000000000000004C000069
:8037800000000000008601040006C00002008308000C000000000000009A001300004C00000000F3F8040000004604000020000000008005304046C400090400000000904930120400000000000000020000000000000010302000000058041060124C040000000000001400080100400400000059F9180000800700001E0000000000E082
:80380000413C8007F00014000000000FE001080000000000000000000000000000000060403C800131201EC0037A00030000000000000010C00300000F00000C00B0FA080000000600001804000000008001302006C20018040000000C820134000000000000000004000000000000000200300000000018008360000C02000000000000C3
:8038800010008300000C02000000B3FD000000001608001800000000008001300016C02458000000000C80010005000000000000000000000000000000000030000000001800036000820000000000000008000300000C0000000098FC00000000001000024000000000200004800010001A0000000001A00104000000000000000000000E
:80390000000000000000200034800010000240000800012000000000000002480000000100000400E8FB0000000000000000000000000000000000000000000000000000800100000000000000000000000000000000000000300000000000000000000C000000000000000000000000000000000048F900000000000000000000000000C8
:80398000000008000000000400000000008201000000000000000000000000000000000080013000060000060000180000040001000000000608000000000000080080F8000000000000009804000000000000040000C04802040000002C8001000000000000000000100000000000000008483000100100020083000020800100000000AE
:803A0000009A00000000000000040020FE0000000000C04000086300000080493001060482181100000040000080100200000000000010010000000000008805000A26010298100061148C048800000000001400400000800000B00898FC0000000000F0001EC003000000E0013C8807F00004000000000F64400C000500000000000094AF
:803A800002000000000000EA410C800730201EC00378000FE001000000000010C00000000304003C0010FF0000000000C0001804030000008001300006C0801A000000000C020030000600000000000010030000000000008801000006C40018008360000C8441000000000010000300000C00003000E0FE0000000000C00098000300005D
:803B0000008001300006C00000050000004C0000B0080400000000000008020000000000008421000006C02018001360008C800900000000000800A300004C0400300020FC10000000000000000000000000000000000000008000000000000000800000000000000000000000000000000000000000000000000000000000000000000035
:803B80000000000000000000000000004CFB20000480001000024000080001200004800010000248000800012000041000000000000000020000000000000021000480001000024000080001200004800010000240000800012000040080FD00000000000000000000000000000000000000000000000000000000000000000000000000A2
:803C0000000000000000000000000000000000000000000000000000000000000000000000000000000098FF2C0004800010000240000800012000048000100000400008000120000000000000000000000000000000000000200004800010000240000800012000048000100002400008000120000400C3FC04000001000000000000009F
:803C80000000000000000000000010000000000000002000000000000000000000000000000000000000000000000000000000000000000000008000100002000000000071FA38000090001000024000080001A00014800010000A4000080001A0001400000000000000000000000000000000A00014800250000A40002800052000048088
:803D000000100008480121200120001400B0FD080000000000000000000000000000000000000000000000000000000000000000000000000000000000000000000000000000000000000000000000000000000000000000000000000000A3FC20008490001000024000080001200004800010000240000800012000040000000000000066
:803D800000000000000000000020000480001000024000080001200004800010000200000800012000040040FF00000000000400000000000000000000000000101000000000000000080000000000000000000000000000000000000000000040000000000000000000000000000000020000000000000000FD0000000000000000000037
:803E00000000000000000000000000000000000000002000000000000000000000000000000000000000000000000000000000000000000000000000000000000000000000B8FD00000000000000000000000000000000000080000800000000000000000000200000000000000010000000000000040000000000020000000000000000AF
:803E80000000000000000000000000000000A8FB04000000000000000000000000000000000000000000000000000000000000000100000000000080000000000000000000000000000000000000000000000000000000000000000000000048FB0020000000000000000000000000000010000000000000400000000000000000000000E7
:803F000000000000000000000000008000000000000000000000000000000000000000000000000000000010A0F900000000000000000000000000200000000000000000000000000000000000000000000000000000000008000000000000000000000200000000000000000000000000000000100000000080FC00000000000000000062
:803F800000000004040000000000000010001020004000000000000000000000000000000000000000000000000020000000000000000000000000400000000010000000000098FE00800000008000000001020000000000000000000800000000000000000000000000000000000000000000000000001000000100000200000000010014
:80400000000001000000008120000000000000A0FF00000100001000804200020002042B60000000000208001020684140000800000000000000000000000000000000000400A00454081081000000080000800000400040002A30040000000050FB0000148000110000026A00000080480004000100080083C000190800200000000000BE
:8040800000000000000000000000000020850084001030288020081C0120200806402012028088B0000800000030FA02001000000100000000000000808000000001001040000200000000000000000000000000000000000000000000000000000000000080400001000000200280400000000210000000000078FF040000000000000028
:804100000482000000000000200000000080002000040000200000000000000000000000000000000000400000020180080000000804020009000400000808000000000000008078FE0000000000000000000000000000000000000000000000000000000000000400000200000000020000010000000000000000000000000000000000E0
:804180000000000000000040000000000000000088F900000000020000100000000000000000000000000000000000000000000000000000000000000000000000000000000000102000000000000000000000000000000000000000000000000098FF00000000000000000000000000000000000010004000000000000000800000000055
:8042000000000000000000000000000000008000000000000000000000000000000000000000000000000000000008FB1000000000000000000000000000000000008000000000000000200000000000000000000000000000000000000000000000000000000000000000040000000000000000000000000400004CFD00000000000000BA
:80428000000000000000000000000000002000000000000000000000000000000000000000000000000000000100010000000000000000000000000000000000000000000000000088FC0000000000000000000000000000000000000200000000000000000000000000000002000000000000000000000000000000008000000000000094
:80430000000000000000000040000000000000000078FF000000000002000000000000000000000000000000000000000001000000000000000000000000000000000000000000000008000000000000000000000000000000808004000000000000E0FF180000000000000000000000000000000000008000000000000000000000000000
:8043800000000000000000000000000000000000000000000000001000000000000000000000004000000000000000D8FA00000000002000000000000000000000000000020000000000000000000000000000040000000000000002800080000000000000000000000000000000000000000400000000000000000070F9000400001000F2
:80440000000010000000000000000010100008000000010008000000000000000000400000000000000000000000000040000000000000200000000000000000000000000000000000E8FF00000000000000000000000000000100000000000000000000000000000000000000000000000000000000000020000000000100000000000052
:80448000000000000000000000000000000000000000FCFB8000008000010000000000000000002000000000000000000000000000000000000000000201000000000000A000000000000000000000000000000000000000000000000000000000000000FE0A00000000080000000000000000000080000000000000000000000000000071
:80450000000000000000000000000000000000000000020000000000000000000000000000000000000000000000000038FF00000000010000000000000000000000000000000000000000000000000000000000000000000000000000000000000000000000000000000000000000000000000000000000000000008010FE000000000073
:8045800000000000002000000000000000000000000000000000000000000000000000000000000000000000000000000000000000000000000000000000000000000000000000000000B8FD0000000000000000000000000000000000000000000000000000000000000000000000000000000000000000000000000000000000000000E6
:804600000000000000000000000000000000000000000098FF00000000000000000000000000000000000000000000000000000000000000000000008000000000000000000000000000000000000000000000000000000000000000000000000000000010FF000000000040000000000000008000100000400000100000000000008080F4
:80468000000000000000000000200000000000000000000000000800000000040000000000000000000000000000000000B8FF00000000000000080000000000000000000000000000000000040200000000040000000000000001000000000000000000000000000081000000000000000000000000090000040000000038FA10000000F4
:80470000002000000400000004400008000020000000000000000200000400000000008000000000000000000000000000000000040080000002000000000000000000000000000200000088FB400000000100020000000000000002400001000100000010000000004000000000000000000000000000000000000000000C000000000035
:80478000000000000000000000000000000000000000000040FC00002000000000000000000000000400000000000000000000000000000000000000000000000000000000000000000000008000000000000000000000000000000000000000000000000050FD02000000000000001000000000000000000000000000000000080800006A
:804800000000000000000000008000000000008000000000000000000000020000000000000000000000000000000801000020FF00000000000000080000000000000080000000000020000000040000180000040000000000000000001000000000010000000000000000000000800000000000000000000000040000000020FA20000077
:8048800008000020000000000000000000080000000000001000004000000000000008040020000000000008001000000100000000000040081000000008000000000804000000000000100038FB000004000020000000800000020000010001000000100200000400010000000000080440200000000001000810000000080200100004E2
:804900000000000000000410000000000000010000000008007AFD4003041500104050000A02000100000190000000085000100001620000000000001806403000000000040120180080A0A00000A0501000512B000000AC200000000C0C0002102800000C0830FE000044808C0A0010405840001620211000060130100602E84C1600C1D4
:8049800022000000000804C020000000000C036008802020871880184400810DAB001400A0048080000A2C0000A6020000480010FB000000000000000000000000020000200001012000100040000200200000000000021010800000000004022000000100000000000000410000000000000000000008040000000000000000E8FE000023
:804A00000000810000040080100000402000000200100288001020008000100000000000004000000000000402204000201008004020000000001000000008108080000000000000000000000038FB000001001200000000000000000000000000000000000000000000000010000000000000000000000000001000000200000000000097
:804A80000000000000000000000000000000000000000000000088FE02000000000000040000000000000000000000000400008000000000000000000000000000000000000000000000000000040000008000000000000000000000000000000000020000008070FF00000000000000000000000000000000001000000000000000000021
:804B0000000000000000000000000000000000000000000100000000000000000000040000000000000000000000000000000000D8FB040000000000000000000000000000000000000002000000000000000000000000081000000000000004010000000000000000000000000000000000000000000000000400000000000000A1FE0295
:804B8000002000000000000000000000000000080000000000000000000000100000002000000000000000000000000000000000002000010004000000000000000000001000004000100000000070FF00000000000000000000000000000000000000020000000000000000000000010000000000008008000000000000000000000000DE
:804C0000000004000000000000000000000000000000000000000058F808000000800000040000000000000000000000000000000000020000000000000000000000000000000000000000000000100000008000000000000000000000000000040000020000000000FE00000000000000000000000000002000000000004000000000005E
:804C80000000000000000000000000000000000000000000000000000000000000000000000000000000000000020000000000000098FB00000000000000004000000000000001200000A000000000000000000020000000080000010000000000004000000000000000020000000000000000000000000000000000000000000000DAFDDC
:804D000000000000000000000000000000000000000000000000000000000000040080000000000020004000000800001080000000000000000000000000000000000000000000000000000000000038FE00000000080000000000000000000000000201000000000000000000000000000000000000000000000000000000000000000076
:804D8000000000000000000000000000000000000000000000000080A8FE000200000400000000000000000000000000000000020030000000000000000000000000000000000020000000000000000000000000000000000000008000000000000000000000000000B0FA00000400001000024000000000000000000010000000000000A5
:804E00000020000400000000000000000000000000000000000000000000000000000000000000000000000000000000000000000000C8FE0000000000C00000000000000000000000000000000000000000000000000000000000000000000000000000000000000000000000000000000000000000000000000000000000000000001078
:804E8000FB0000001000F00000C002000000000000000020000000000000000000001000000000000000000000000000000000000000000000000000000000000000000000000000000000000000000088FF0000B000000000181101000000000000000010000000000000008011B100000000000000000000000000000000000000000012
:804F00000000000000000000000000000000000000000000000000000028FE00008000006000408001000000000000000000000000000000000080001000000000000000000000000000000000000000000000000000000000000000000000000000000000000000000048FD00003C100080001E0802000000000000000030400000000031
:804F80000000E0013C00000000000000000000000000000000000000000000000000000000000000000000000000000000000000000000A8FD000030000080001800020000000000000000C0800000000000008001300000000000000000000000000000000000000000000000000000000000000000000000000000000000000000000034
:80500000C8FD000030090040009804010000000000000000C00200000000000080493009000000000000000000000000000000000000000000000000000000000000000000000000000000000000000000F0F9000004000010000240000000000000000000D00000000000000020000400000000000000000000000000000000000000005E
:80508000000000000000000000000000000000000000000000000000000008FE000000000000000000000000000000000000C00000000000000000000000000000000000000C00000000000000060000000000000000000000000000000000000000000000000000000000B0FD0000001000B00000C0020000000000000000F000000000B9
:805100000000000000001000000000000000080000000000000004000000000000000000000000000000000000000000000000000000000090FF0000B0000040001811010000000000000000C0000000000000008011B100000000000000000000000000000000000000000000000000000000000000000000000000000000000000000068
:8051800000CBF900000021006000809001000000000000000000040000000000000008000400000000000000000000000000000000000000000000000000000000000000000000000000000000000000000061FD00003C000080001E000200000000000000003020000000000000E0813C0000000000000000000000000000000000000022
:80520000000000000000000000000000000000000000000000000000000000D8FB00003000008000180002000000000000000000000000000000008001300000000000000000000000000000000000000000000000000000000000000000000000000000000000000000000033FE000030080040001804010000000000000000000000001A
:80528000000000008041300800000000000000000000000000000000000000000000000000000000000000000000000000000000000000000030FA100004000010000A4000000000000000000010000000000000002004051200000000000000000000000000000000000000000000000000000000000000000000000000000000000000D2
:80530000000030FA00003000000000080400000000000000000000000000000000000000000000000000000000000000000000000000000000000000000000000000000000000000000000000000000000000050FC0000000000B00000C00200000000000000002000000000000000000000000000000000000000000000000000000000E9
:805380000000000000000000000000000000000000000000000000000000000098FA0C0080400040000021010000000000000000100000000000000080081142000000000000000000000000000000000000000000000000000000000000000000000000000000000000000000B8F8040030080060008088010000000000000000000200AB
:80540000000000000000112021000000000000000000000000000000000000000000000000000000000000000000000000000000000000000000F0FC1800340000800006000200000000000000003040000000000000E0401C000000000000000000000000000000000000000000000000000000000000000000000000000000000000006E
:8054800000000048FF080030000080001000020000000000000000C0800000000000008001300000000000000000000000000000000000000000000000000000000000000000000000000000000000000000000048FD000000000040001004010000000000000000C00000000000000080481009000000000000000000000000000000006F
:80550000000000000000000000000000000000000000000000000000000000000058FA1000040A0010000240000000000000000000D00000000000000020000400000000000000000000000000000000000000800000000000000000000000000000000000000000000000000000B0FC000020000000000000000000000000000000000029
:805580000000000000000000000000000000000000000000000000000000000000000000000000000000000000000000000000000000000000000098FD0000100000B00000C0020000000000000000000000000000000000000C00000000000000000000000000000000000000800100000000000000000000000000000000000000000007
:8056000000000000B0FE0C003005004000181101000000000000000000220000000000008011010000000000000000000000000000000000000000000000000000000000000000000000000000000000000000000092FA040000000060004080010000000000000000C0200000000000000020000A00000000000000000000000000000062
:8056800000000000060100000000000000000000000000000000000000000000000070FC180004000080001E10020000000000000000D000000000000000E0010C00000000000000000000000000000000000000800700000000000000000000000000000000000000000000000000B0FF080000000080001800020000000000000000C016
:80570000000000000000008001300800000000000000000000000000000000000000060000000000000000000000000000000000000000000000000059F9000000000040001805010000000000000000C0000000000000008051B0000000000000000000000000000000000000000006000000000000000000000000000000000000000073
:80578000000000000070FF1000040200100082480000000000000000005080000000000000200004010000000000000000000000000000000000000000000000000000000000000000000000000000000000200000006CFA000020080000000000000000000000000000800000000000000000000010000000000000000000000000000017
:805800000000000000000000000000000000000000000000000000000000000000000010FC0000101000B00000C0020000000000000000C0000000000000000000000000000000000000000000000000000000000000000000000000000000000000000000000000000000006000000068FD0C00300200400008210100000000000000005D
:8058800080240000000000008011112000000000000000000000000000000000000000000000000000000000000000000000000000000000000000000073FB040000000060001081010000000000000000000000000000000000102006000000000000000000000000000000000000000000000000000000000000000000000000000000A8
:80590000000080410000D9FF180004000080000E040200000000000000001000000000000000E0811C000000000000000000000000000000000000000000000000000000000000000000000000000000000000E0010000CEF80800000000800018000200000000000000000000000000000000804130000000000000000000000000000017
:805980000000000000000000000000000000000000000000000000000000000080010000F2FD000000000040008804010000000000000000000000000000000080111008000000000000000000000000000000000000000000000000000000000000000000000000000000000080010000C8FB100004000010008A4000000000000000008F
:805A00000050080000000000002000160000000000000000000000000000000000000000000000000000680000000000000000000000000000000000000068FB000020080000000804000000000000000000804000000000000000001008000000000000000000000000000000000000000000000000006000000000000000000000000061
:805A80000000000000000068FE0000000000B00000C0020000000000000000C0000000000000000000010000000000000000000000000000000000000000000000000000700000000000000000000000000000000000000008FC0C0020040040008008010000000000000000808000000000000080000042000000000000000000000000DE
:805B0000000000000000000000000000006800000000000000000000000000000000000000C0FA04000000006000009001000000000000000000000000000000000049001200000000000000000000000000000000000000000000000000002200000000000000000000000000000000000018FF18000C00008000060002000000000000CE
:805B800000001000000000000000E0000C0000000000000000000000000000000000000000000000000000180000000000000000000000000000000000000060F808000000008000100002000000000000000000000000000000008001202000000000000000000000000000000000000000000000000000000000000000000000000000DE
:805C0000000000000000000090FD00000000004000900201000000000000000000000000000000008050200200000000000000000000000000000000000000000000000000000000000000000000000000000000000000000068F9100004000010000250000000000000000000D084000000000000A00014020000000000000000000000F1
:805C8000000000000000008006000000000008000000000000000000000000000000A00100007CFB00000000000000000000000000000000000000000000000000008040100800000000000000000000000000000000000000060000000000000000000000000000000000000000008001000058F90000001000B00000C0020000000000CC
:805D0000000000E020000000000000000000000000000000000000000000000000000000000007000000000010000000000000000000000000000000C0010000E0FB0C00B00000400088080100000000000000001000000000000000000801200000000000000000000000000000000000008006000000000008000000000000000000001C
:805D80000000000000A0010000F3F804000012006000108201000000000000000040000000000000000004010100000000000000000000000000000000000000100200000000601100000000000000000000000000000020000021FD18003C000080000E00020000000000000000B00000000000000060000C1000000000000000000000F7
:805E0000000000000000000080010000000000780000000000000000000000000000006000000046FD0800300800800018000200000000000000004000000000000000000120000000000000000000000000000000000000000000000000000060000000000000000000000000000000000000009AF80000300000400008050100000000DB
:805E80000000000080000000000000000041200400000000000000000000000000000000000000000000000000600000000000000000000000000000000000000080FC1000040000100002400200000000000000001000000000000000A0080400000000000000000000000000000000000000800000000000000800000000000000000035
:805F00000000000000002000000070FE00000000000000000001000000000000000000000000000000008040000000000000000000000000000000000000000000000000000000000000000000000000000000000000000000000040FE0000001000B0001EC4020000000000000000E00000000000000000003D00000000000000000000D3
:805F8000000000000000000000000100000000001800000000000000000000000000000040000000B0FF0C00B000004000000101000000000000000010420000000000000000800800000000000000100000000000000008000080000000000000000000000000000000000000000000002000000018F804000020006000188501000000D7
:806000000000000000C01800000000000000003209020000000000000001000000000000000000004601000000006014000000000000000000000000000080510000D8FB18003C000080001E80020000000000000000F00000000000000060003C00040000000000001002000000000000080000800700000000007800000000000000008E
:8060800000000000000000E001000028FA080030080080001804010000000000000000C00000000000000000413088040000000000005002000000000000080000000600000000006000000000000000000000000000000080010000B0FE000030010040005800020000000000000000C01400000000000000113000040000000000000030
:806100000200000000000000000000060000000000600000000000000000000000000000008001000008FC100000000000000000000000000000000000000000000000000000000000040000000000000002000000000000000000000000000000000000000000000000000000000000000000000000ACFF20000480001000024000080073
:8061800001200004800010000240000800012000040000000000000000000000000000000020000480001000024000080001200004800010000240000800012000040098FF000000000000000000000000000000000000000000000000000000000000000000000000000000000000000000000000000000000000000000000000000000C2
:8062000000000000000000000000000098FF2C0004800010000240000800012000048000100002400008000120000400000000000000000000000000000000200004800010000240000800012000048000100002400008000120000400E3F80400000000001000004000000000000000000000000000000000000000000000000000000008
:80628000000000000000000000000000000000000000000000000000000000000000000000000000000099FA3800048000000000000008000120000480000000024000080001200000000000000000000000000000000000002000048002100002400028000120000480001000024000080001A00004005EFA0800000000004000080001CA
:806300000000000000000000400000000000000000002000000000000000000000000000000000000000000000000000000000000000000000000000000000000000000032FA2000048000100002400008000120000480001000024000080001200004010000000000000000000000000000002000048000100002400008000120000480CB
:806380000010000240000800012000040088FF00000000000000000000000000000000000000000000000000000020211000000000000000000000000000000000000000000000000000000000000000000000000000000000000000000098FD000000000000000000000000000000000000000000000000000000000000000000000000B1
:8064000000000000000000000000000000000000000000000000000000000000000000000000000000000098FF00000000000000000000000000000000000000000000000000000000000000000000000000000000000000000000000000000000000000000000000000000000000000000000000000000098FF000000000010000040009E
:80648000000000000000000000000000000000000000000000000000000000000000000000000000000000000000000000000000000000000000000000000000000000000098FA00000000000000000000000000000000000000400000000000000000000000000000000000000000000000000000000000000000000000000000000000CA
:806500000000000000000000000000000000D8FB00000000000000000000000000000000000000000000000000000080000000000000000000000000000000000000000000000000000000000000000000000000000000000000000000000018FF000000000000000000000000004000000000000000000008000000000000000000000069
:806580000000000000000000000000000000000000000000000000000000000000000000000000000000000058FB000010000040200800810000000000000000000000000002000000000000000000000000000000000000000000000000000000000000000000000000000000000000000000000000000000C4FF000304000010800240B1
:8066000000020000400000000000000000001200000000000000000000000000000000000000000000000000000000000000000000000000000000000000000000000000000038FC00000000008010300040000000000000000000600100000000000000200600000000000000000000000000000000000000040000000200000000000005
:8066800000000000000000000000000000000060FC000000000000000000000000000000000000002000000000000000000000000000000000000000000000000000000000000000000000000000000000000000000000000000000000000000B8FD0A0000000040200800800000000000000000000000000000000000001008000000005F
:8067000000000000000000000000000000000002000000100000000000000000000000000000000000000000004CFF00000000000000000000000000000000000000000000000000000000000000000000000000000000000000000000000000000000000000000000000000000000000000000000000000000098FF000000000000000025
:806780000000000000000000000010000000000000000004080000000000000000000000000000000000000000000000000000000000000000000000000000000000000000000040FB000000000000000000000000000000000000000000000000000000000000000000000000000000000000000000000000000000000000000000000042
:806800000000000000000000000000000000000098FF100000000000000000000000000000000000000000000000000000000000000000000000000000000000000000000000000000000000000000000000000000000000000000000000000000CCFB000000000000000000000000000000000000000000000000000000000000000000AA
:8068800000000000000000000000000000000000000000000000000000000000000000000000000000000000000098FF00000000000000000000000000000000000000000000000000000000000000000000000000000000000000000000000000000000000000000000000000000000000000000000000000000098FF000000000000006A
:80690000000000000000000000000000000000000000000000000000000000000000000000000000000000000000000000000000000000000000000000000000000000000000000098FF0000000000000000000000000000000000000010000000000000000000000000000000000000000000000000000000000000000000000000000070
:80698000000000000000000000000000000000008000FE0A0000000000000000000000000000000000000000000000000000000400000000000000000000000000000000000000000000000000000000000000000000000000000000000000000000B0F9000000000000000000000000000000000000000000000000000000000000000062
:806A00000000000000000000000000000000000000000000000000000000000000000000000000000000000000000098FF00000000000000000000000000000000000000100000000000000000000000000000000000000000000000000000000000000000000000000000000000000000000000000000000000000088FE000000000000E9
:806A800000000000000000000000000000000000000000000000000000000000000000000000000000000000000000000000000000000000000000000000000000000000000000000098FF040000000000000000000000000000000000000000000000000000000000000000000000000000000000000000000000000000000000000000FB
:806B0000000000000000000000000000000000000000D8FB00000000000000000000000000000000000000000000000000000000004000000000000000000000000000000000000000000000000000000000000000000000000000000000000000000098FB000000000000000000000000000000000000000000000000000000000000006F
:806B8000000000000000000000000000000000000000000000000000000000000000000000000000000000000000000098FF00000000000000000000000000000000000000000000000000000000000000000000000000000000000000000000000000000000000000000000000000000000000000000000000000000098FF000004000063
:806C000000000000000000000000000000000000000000000000000000000000000000000000000000000000000000000000000000000000000000000000000000000000000000000000D8FF02000000000000000000000000000000000000000000000000000000000000000000000000000000000000000000000000000000000000003B
:806C800000000000000000000000000000000000000000B8FD00000000000000000000000000000000000000010000000000000000000000000000000000000000000000000000000000000000000000000000000000000000000000000000000000000098FE040000000000000200000000000000000000800000000000000000000000C2
:806D000000000000000000000000000000000000000000000000000000000000000000000000000000000000000000000058F900001000000000000000000000000000000000000000000000000000100000000000000000000000000000000000000000000000000000000000000000000000000000000000000000000088FF000000001B
:806D8000000000000000000000000000000000000000000000000000000000000000000000000000000000000000000000000000000000000000000000000000000000000000000000000098FF00000000000000000000000000000000000000000000000000000001000000000000000000000000000000000000000000000000000000FB
:806E0000000000000000000000000000000000000000000088FE00000000000000280000000000000000000000000000000000000000000000000000000000000000000000000000000000000000000000000000000000000000000000000000000000000030FD0E0000000020000000000000000000201004000000000000000000800451
:806E800000000000000000000000000000000000000000000000000000400000000000000000000000000000000000000080C8FE12000000004020080081000002000000000000000000000000008000000000000000000000000000000000000000000010000000000000000000000000008000000000000000000040008068FA003300AA
:806F0000000CB0990243000200810100681001000000006000000020800800000000000000000000000000000000000000200000000000000100000000000000040000000000000000000100E0FC0000000002411048024A2000008040000004400000000000000000612000000000000000000000000000000000000000000000000000E4
:806F800000200000000000040000000000000000000000000040FC000000008140000400001000004020000000100000000000000000000100000000000000000000000000000000000000000000000000002000000000000000000000000000000000000000F0FA0000000000002000048100000000000000040000000000000000804078
:807000001000000000000000000000000000000000000000000000000000000000000000002000000000000000000000000000D0FD100000000000000000000000000000000000000200000000000000000000000000000000000000000000000000000000000000000000000000000000000000000000000000000000000000CCF900003C
:807080000000000000000000000000000000000000000000000000000000000000000000000000000000000000000000000000000000000000000000000000000000000000000000000000000098FF00008000000000000000000000000000000000000000000000004002080000000000000000000000000000000000000000020000002D
:8071000000000000000000000000000000000000000000000000B8FB00000804000000002600000000000000000000000000000000000000000000000000000000000000000000000000000000000000000000000000000000000000000000000000000000000038F91E00004000000000000000000000000000000000000000000000009B
:8071800000000000000000000000000000000000000000000000000000000000000000000000000000000000000000000000000082FB00001000000000000000000000000000000000000000000000000000000000000000000000000000000000000000000000000000000000000000000000000000000000000000002000000098FC004E
:807200000000000000004000000000000000000000000000000000000000000000000000000000000000000000000000000000000000000000000000000000000000000000000000000000000000D8FB0000040000200000800000000000000000000002000000000000000000000000000000000000000000000000000000000000000055
:807280000000000000000000000000000000000000000000000080D8FF00000000000000000400000000000000000000000000000000000040800000000000000000000000000000000000000000000000000000000000000000000000000000000000000000000090FF080020000000001400000000000000000000200000000000000088
:8073000020000404000000000000000000000000000000000000000000000000000000000000000000000000000000000000000000E0FE00000000000000000000000000000000000010000000000000000000000000000000000000000000000000000000000000000000000000000000000000000000000000000000000000000088FF70
:80738000100000000000000000000000000000000000000100000000000000000000000000000000000000000000000000000000000000000000002000000000000000000000000000000000000000A8FC20000080000000020000080001200004800000000040000804002010000000000000000000000000000000000000000480061053
:8074000000000000000001000000000010080000000000000000000010FA0000000006000000000000000C8001300000000000000008200020800000000000000000000000000000000000000000000600000000000000000000000000002000000000000000000000F8FB00000000000000000000000000000001200000000000005800CC
:80748000006001000000000000000000000000000000000000000C000020000000000000030000000000300000000000000000000000F8FF0000000026080000000060104C9011300246040000008B20000080000000000000000000000000000000000000000000000010000000000000000000000000C02000000000000000000000A013
:80750000F88085000046010018030000042C82013042200800000010500000400100000000000000000000000000000000000000B00820C48400000000008C0200000000A0000000000000000000000060FDE00100800700001E000078400FE0013D8007000000C00342000000010000000000000000000000000000000000000038800063
:80758000E00000000000000E000000000080000000000000000000000018FC8001000006000018000060000C80813010060200000003500000400101000000000000000000000000000000000000300006C00000000000000C000000000080000000000000000000000008FF800100002102001800006012424410080226000000009320F0
:807600008000800400000000000000000000000000000000000000300006D00000000000000C000000000040000000000000000000000058F8200004800400000000000800092000048000D00000400008040020100400000000000000000000000000000000000004800610000000000000000000000000102000000000000000000000ED
:8076800074FF000000000002000000000000000400000006C00000000008200020800000000000000000000C00000000000000060000000000000000000000000000000000000000000000000000000000D0FB0000010006000000000000000C0880001000E00000000058000060010000000000000000000800000000000000040008004E
