:020000040000FA
:80000000FFFF62FF3900FFFFFFFFFFFFFFFFFFFFFFFFFFFFFFFFFFFFFFFFFFFFFFFFFFFFFFFFFFFFFFFFFFFFFFFFFFFFFFFFFFFFFFFFFFFFFFFFFFFFFFFFFFFFFFFFFFFFFFFFFFFFFFFFFFFFFFFFFFFFFF800C9001324006C8401100512006C480A80255048C4011280245804C9001000000000000000000000000000000000C900132004B
:8000800026C80419280245A00814A82250044014882A0245A0089001D0F80017E0025C800B70012A800A50012A4005B4800A50012A4005A8003FE0020000000000000000000000000000000012E0025C001DF0032E4005A80015A00554800AA002544005A80015E00298FF000000000000000000000000000000000000000000000000004E
:80010000000000000000000000000000000000000000000000000000000000000000000000000000000000000000000000000000000098FF0000000000000000000000000000000000000000000000000000000000000000000000000000000000000000000000000000000000000000000000000000000000000000000000000000009850
:80018000FF00012000048000140000000000000000000000000000000000000021200000000000000000000000000000000000002000040030140202000000000000000000000000000000000000200010FD0E80200010020A400000000000000000000000000000000000000041200000000000000000000040000000000000008004142A
:800200000000080028000000000000000000000000000000000000008413FD00000480000000000000080000000004800000000240000800010000000000000000000000000000000000000000000000000000000000000000000000000000000000000000000000000078FA000000000000000000000000000000000006000000000000E7
:80028000000000000000000000000000000000000000000000000000000000000000000000000000000000000000000000000000000000F8FF000030100000000000006020000000308007000016000311000C0400000000000000000000000000000000000000000000000000000000000000000000000000000000000000000000000056
:8003000018FF000030010000000000006002000000301000000008000B08002C00000000000000000000000000000000000000000000000000000000000000000000000000000000000000000000000000C8FF00000002060200000000004200000000020300000C004000014008000000000000000000000000000000000000000000009F
:800380000000000000000000000000000000000000000000000000000000D8FC00003C9007000000000078000000003C0804000010C00318200F0000000000000000000000000000000000000000000000000000000000000000000000000000000000000000000000000068FC0000000006000000000000000000000000040000100000FE
:8004000060000000000000000000000000000000000000000000000000000000000000000000000000000000000000000000000000000000D8FE0000300906000000000060120000003009020000080093600A4C02000000000000000000000000000000000000000000000000000000000000000000000000000000000000000000000007
:800480000000FB000004000000000000000800000000048000000002400008000100000000000000000000000000000000000000000000000000000000000000000000000000100000000000000000000000ACFE000000000000000000000000000000000000000000000000000000000000000000000000000C000000000000000600005A
:8005000000000000000000000000000000000000000000000000000000000070FD000030100000000000006000000000008005000016000311000C04000000000000000000000800000000000000040000000000000000000000000000000000C0400000000000000000000040FD00003002000000000000600A00000000000200000800C0
:800580000308000C00000000000000000000000000000000000000000000000000000000000000000000000000C0020000000000000000000023FE00000002000000000000004200000000420300000C0040004440080000000000000000000000000000000000000000000000000000000000000000000000000028000000000000000078
:80060000000011F800003C1000000000000078000000000C0004000010C00318000F00000000000000000000000000000000000000000000000000000000000000000000000000F0000000000000000000000080FB000000000000000000000000000000300004000010000060200000000000000000000000000000000000000000000074
:8006800000000000000000000000000000000000000000000000000000000000FBFB000030080000000000006010000000301202000008008360020C02000000000000000000000000000000000000000000000000000000000000000000000000C0200000000000000000000010F91000040000000000000068840000000480005000025E
:8007000040006800010000000000000000000000000000000000000000000000000000000000000000000000000010840000000000000000000008FE000000000000000000004000000000000000004000000060000000000000000000000000000000000000000000000000000000000000000000000000000000800000000000000000D6
:8007800000000018F9000030000000000000002000000000308005004016000378000C00000000000000000000000000000000000000000000000000000000000000000000000000004000000000000000000000B8FF0C0030050000000000004012000000300502000008000B62008C040000000000000000000000000000000000000040
:80080000000000000000000000000000000000000000080000000000000000000090FC04000002000000000000008100000000020300880C00400002400800000000000000000000000000000000000000000000000000000000000000000000000000880000000000000000000030F900003C1000000000000058000000003C080430006D
:8008800010C00318100F00000000000000000000000000000000000000000000000000000000000000000000000000300000000000000000000000F8F90C000000000000000000004000000000000400401000000000000000000000000000000000000000000000000000000000000000000000000000000000000000000000000000002D
:8009000000000000D0FA0000B0080000000000000002000000B00802000808008B00002C0200000000000000000000000000000000000000000000000000000000000000000000000000440000000000000000000060F9000004800000000000006801000000048000000002400368000D00000000000000000000000000000000000000A8
:80098000000000000000000000000000000000000000100000000000000000000000D4F9000000000000000000004040000000000000000000000000000C0000000000000000000000000000000000000000000000000000000000000000000000000000000000000000000000000050FB000030000000000000002000000000308005003E
:800A00000016C08360100C02000000000000000000000000000000000000000000000000000000000000000000000000000000000000000000000000C0FE0000304100000000000040100000003010020000080010000240000000000000000000000000000000000000000000000000000000000000000000000000000000000000000084
:800A800000000000004BFD000000020602000000000021000000000A0300000C00906004800100000000000000000000000000000000000000000000000000000000000000000000000000200000000000000000000081FB00003C9007000000000058000000003C0004000010C00368100D00000000000000000000000000000000000096
:800B000000000000000000000000000000000000000000300000000000000000000000C0FB000000000600000000000040000000000004000010008300000000000000000000000000000000000000000000000000000000000000000000000000000000C0200000000000000000000003FE0000300A0600000000000001000000300A024F
:800B8000000008000B60000000000000000000000000000000000000000000000000000000000000000000000000000000C00200000000000000000000F0FD100034020000000000002881000000048000000002402368008900000000000000000000000000000000000000000004000000000000000000000000000000100000000000F6
:800C0000000000000000C4FA000020080000000000002000000000000000000000008200100004000000000000000000000000000000000000000000000000000000000000000000000000000000000000000000000000E8FD000010000000000000000000000000309005000016000160000C00000000000000000000000000000000009B
:800C80000000000030000000000000000000000000000000C0400000000000000000000088FA0C00200900000000000000800000003002020000080092402224020000000000000000000000000000000000000000B0200000000000000000000000000000C0000000000000000000000093F9040080000000000000000000000000000A8D
:800D00000300000C001000000000000000000000000000000000000000000000000000060000000000000000000000000000002800000000000000000000E1FD00002C1000000000000018100000003C0004000010C0020A00010000000000000000000000000000000000000000003C000000000000000000000000000000F0000000009B
:800D800000000000000000B8F80C000010000000000000404000000000080400001000000000000000000000000000000000000000000000000000000008000000000000000000000000000000200000000000000000000053FB00000000000000000000400200000030020200000800100100000000000000000000000000000000000086
:800E0000000000000030020000000000000000000000000000C0080000000000000000000000F9000034010000000000002821000000048000000002401169012900000000000000000000000000000000000000000004000000000000000000000000000000100800000000000000000000FCF9000020080000000000002000000000003E
:800E80000000000000000100400004000000000000000000000000000000000000000000000000000000000000000000000000004000000000000000000000F0FA000010000000000000000000000000309005000016000060000C0000000000000000000000000000000000000000003000000000000000000000000000000000000000FC
:800F0000000000000000000008FF0800A00800000000000000410000003001020000080088404404020000000000000000000000000000000000000000B0200000000000000000000000000000004200000000000000000000EBFA00000042000000000000000400000000020300000C0000010000000000000000000000000000000000DD
:800F800000000000000000210000000000000000000000000000800400000000000000000000F9FB00002C0000000000000018100000003C0804000010C0000800010000000000000000000000000000000000000000003C000000000000000000000000000000308000000000000000000000C8FA04000020000000000000404000000091
:8010000000080400001000020200000000000000000000000000000000000000000000000008000000000000000000000000000000800000000000000000000063FB000000010000000000004001000000B000020000080022000000000000000000000000000000000000000000000000B00000000000000000000000000000000002009A
:8010800000000000000000000060FB1000940000000000000008000000000480000000024011281449040000000000000000000000000000000000000000008000000000000000000000000000001000000000000000000000007CFD000010100000000000000000000000000000000000000142000000000000000000000000000000001D
:801100000000000000000000000000000000000000000000000000000000000000000000000000A8FB000000000000000000001800000000008005000016000030000800000000000000000000000000000000000000000000000600000000000000000000000000000000000000000000000000B0FA0C000008000000000000000000001D
:801180000000000200000800804880400200000000000000000000000000000000000000000000460200000000000000000000000000000000000000000000000043FA04000000000000000000001200000000410300000C0000000000000000000000000000000000000000000000000000000080000000000000000000000000000002EE
:801200000000000000000000000051FC00000C0800000000000018000000000C0004000010C0807800030000000000000000000000000000000000000000000080070000000000000000000000000030200000000000000000000018FA0C00201000000000000060100000003000040000100002000000000000000000000000000000003F
:80128000000000000000000000000001000000000000000000000000C0200000000000000000000013FC000020000000000000006001000000301202000008001261000000000000000000000000000000000000000000000000000600000000000000000000000000C00200000000000000000000A8F90000144200000000400068000057
:801300000000048000100012400B68000100000000000000000000000000000000000000000000800000000000000000000000000000100000000000000000000000F0FF000010000000000000000000000000000000000008008200000000000000000000000000000000000000000000000000000000000000000000000000000000807A
:801380004000000000000000000000D0F8000000000000000000007800000000309005000016000171000C00000000000000000000000000000000000000000000000600000000000000000000000000008000000000000000000000E8FC0000000A0000000000000014000000300202000008001208202C080000000000000000000010D2
:8014000000000000000000080000004602000000000000000000000000000000000000000000000000A2FA00008000000000000063000100000000020300020C00100120400800000002000000000000000100000000000000000000200400000000000000000000000000440000000000000000000050F900000C0800000000C0037810FD
:801480000000003C0804302014C00278000F00000000040000000000001002000000000000080000800700000000000000000000000000300000000000000000000000F0F9000020200000000000036010000000000804C000080000622000020000800400000000000050020000000000000800000000010000000000000000000000004F
:80150000008000000000000000000000F9FF000020010000000000036001000000300102C04810002060004C00000000040000000000000002000000000000000000002600000000000000000000000000000800000000000000000000F0F91000000000000000000000000000000000000000000000000000000000000400000000000026
:801580000002000000000000000000000000000000000000000000000000000000000000000000000000ACFF20000480001000024000080001200004800010000240000800012000040000000000000000000000000000000020000480001000024000080001200004800010000240000800012000040098FF000000000000000000000063
:801600000000000000000000000000000000000000000000000000000000000000000000000000000000000000000000000000000000000000000000000000000000000098FF2C0004800010000240000800012000048000100002400008000120000400000000000000000000000000000000200004800010000240000800012000048002
:8016800000100002400008000120000400E3F804000000000000000000000000000000004004000011000000000000000000000000000000000000000000000000000000000000000000000000000000000000000000000000000000000089FB20000480001000024000000001200004000010000000000000012000040000000000000063
:80170000000000000000000000200004800010000240000800012000048000100002400008000120000400F8FF0C0000000000000000000000000000000000000000000000400000000000000000000000000000000000000000000000000000000000000000000000000000000000000000000000000000A3F82000048000100002400073
:801780000821012000048020140082500809010120000400000000000000000000000000000000200004800010000240000800012000048000100002400008000120000400D8FA000000000000000000000080000000000000000000000000000000000000000000000000000000000000000000000000000000000000000000000000006A
:80180000000000000000000000000000000010FF00000000000000000000000000000000000000000000000000000000000000000000000000000000000000000000000000000000000000000000000000000000000000000000000000000098FF0000000000000000000000000000000000000000000000000000000000000000000000C2
:801880000000000000000000000000000000000000000000000000000000000000000000000000000000000098FF080000000000000000000000000000000000020000080000000000000000000000000000000000000000000000000000000000000000000000000000000000000000000000000000000000B8FD0000000000000000008A
:8019000000000000000000000000000000000000000000000000000000000000000000000000000000000000000000000000000000000000000000000000000000000000000098FF0200000000000000000000000000000000000000000000800000000000000000000000000000000000000000000000000000000000000000000000004E
:8019800000000000000000000000000000000030FD00000000000000000000000000000000000000000000000020000000040000000000000000000000000000000000000000000000000000000000000000000000000000000020000000000098FB00000000000000000000000000000000000201000404000000000000000000000000D8
:801A00000000000000000000000000000000000000000000000000000000000000000000000000000000000000A8FA00000000A000000000000000000000A0880044000210000020000000080000000000000000000000000000000000000000000000000000000000000000000040000000000020000000000068F90000000004000000B9
:801A80000001000000020010088400001002620000880A0000000000000000000000000000000000000000000000000000000000000000000000401A000000000000000000000080F90000000000000000800000000004001010000000000000000000020000000000000000000000000000000000000000000000000000000000000000C8
:801B00000000000000000000000000000000000030FA080000000200000000000000000000000002010008048100000400000000000000000000000000000000000000000000000000000000000000000000000000000000000000000000000080B5F800000000000000000000000000000000000000000000000000000000000000000070
:801B800000000000000000000000000000000000000000000000000000000000000000000000000000000000000098FF000020000000000000000000000000000000000000000000400000000000000000000000000000000000000000000000000000000000000000000000000000000000000000000000000000D8FD0000000000000019
:801C0000000000000000000000000000000000000000000000000000000000000000000000000000000000000000000000000000000000000000000000000000000000000000000098FF100000000000000000000000000000000010000040000000000000000000000000000000000000000000000000000000000000000000000000006D
:801C80000000000000000000000000000000000000CCFE020080000000000000000000000000000000000000000000000000000000000000000000000000000000000000000000000000000000000000000000000000000000000000000000000080B8FD100000000000000000000000000000000000000000000000000000000000000053
:801D000000000000000000000000000000000000000000000000000000000000000000000000000000000000000000CCFB00000000000000000000000800000000000000000000000000000000000000000000000000000000000000000000000000000000000000000000000000000000000000000000000000000018FF00000800000075
:801D800000000000000000000000000000000000000000000000000000000000000000000000000000000000000000000000000000000000000000000000000000000000000000000018FF000000000100000000000000000000000000000000000000000000000000000000000000000000000000000000000000000000000000000000CB
:801E000000000000000000000000000000000000008010FE000000000000000000000000000000002000000000000000000000000000000000000000000000000000000000000000000000000000000000000000000000000000000000000000000000B8FD00000000000000000000200100000000000000000000000000000000000000DE
:801E80000000000000000000000000000000000000000000000000000000000000000000000000000000000000000000A8FD000000200000000000000000000000000000000000000000000000000000000000000000000000000000000000000000000000000000000000000000000000000000000000000000000000A9FE000000000076
:801F00000000000000000000000000000000000000000000000000000000000000000000000000000000000000000000000000000000000000000000000000000000000000000000000098FF0000000000000000000000000000000000000000000000000000000000000000000000000000000000000000000000000000000000000000CA
:801F800000000000000000000000000000000000000000DCFB00000000000000000000000000000000000000000000000000000000000000000000000000000000000000000000000000000000000000000000000000000000000000000000000000000098FF00000000000000000000001000000000000000000000000000000000000063
:80200000000000000000000000000000000000000000048000000000000000000000000000000000000000000000000000D0FA00004000000000000000000000000000000000000000001000080000000000000000000000000000000000000000000400040000000000000000000000000000100000000000000000000040FF0000000063
:8020800000000000000000000000000000004000004000000000000000000000000000000000000000000000000000008000000000000000000000000000004000000000000000000000001CFB000000000000000000000000000000000000000000000100180400000000000000000000000000000000000000000000000000000000006C
:802100000000000000000000400100000000000000000000C0FB02000000000000000000400000000000000020010000820000040200000000000000000000000000000000000000000008000000000000000000000000000000110000000000000000008060FE000000000000000000000000000000000000000000000000000000000081
:80218000000000000000000000000000000000000000000000000000000000000000000000000020000000000000000000009AFF00000000000000000000004000000000000000000000000000000000000000000000000000000000000000000000000000000000000000000000000000000080000000000000000000000018FB00000053
:8022000000000000000000000000000000000000000000008000000000000000000000000000000000000000000000000000000000000000000000000000000000000000000000000000000010FF000000000000000000000000000000000000000000000000010000000000000000000000000000000000000000000000000000000000CE
:8022800000000000000000000000000000000000000000000088FE000000000000000000000000020000100800000000000040000000000000000000000000000000000000000000000000000000800000000000000000000000400000000000000000000000E0F90800100800000000000020000000000000024100080481000000400015
:802300000000000000000000000000000000000000000000000200000000000000000000000000000000000000000000000080EEF8000004200000000000000800020000089000140002500012000020000000000000000000000000000000000000004000800000400000000000000000000000202000000000000000000000C0FD000199
:8023800020048480001000036000088040082484800210005240100800012000000000000000000000000000000000800800A00000000000800000000000000009005001000000000000000008F8FC00000000000000000001100000402000000000000000000020000000000000000000000000000000000000000040000000000000009E
:8024000000000200000000000000000000000000000000000010B8FA000110088120000480002000020000002001410008808010000220000800000000000000000000000000000000000000000000000000000000000000000000002000000000000000000000D0F81000000000000000000000000000000000000000008000000000001C
:802480000000000000000000000000000000000000000000000000000000000000000000000000000000000000000000000000004CFB12000000000000000000000000000000000000000080044810020000000000000000000000000000000000000000000000000000000000000000000000000020000000000000000000008054FB00B6
:80250000000820000000000000100000000048000000000000000000000000000000000000000000000000000000000000000000000000000000000000000000000000000000000000000000000060FE000010000000000000000000000000100000000000000000000000000000000000000000000000000000000000000000000000005D
:80258000000000000000000000000000000000000000000000000088FE00000000000000000000000000000000000000000000800000100000000000000000000000000000000000000000000000000000000000000000000000000000000000000000000000000080FE000000000000000000000000000000004000000000000000000007
:8026000000000000000000000000000000000000000000000000000000000000000000000000000000000000000000000000000000D8FB00000000000000000000000000000020000080000000000000010000000000000000000000000000000000000000000000000000000000000000000000000000000000000000000000000038FEB0
:8026800000000000000000000000000000000000000000020000001000000000000000000000000000000000000000000000000000000000000000000000000000000000020000000000000000000098FE000000000000000040000000000000000000000000000000000000000000000000000000000000000000000000000000000000F0
:8027000000000000000000000000000000000000000000000000000098FB00000400000000000000080800000004000000000000000000000100000000000000000000000000000000000000000000000000000000000000000000000000000000000000000000000080FB080000000000000000000000000000000000000000000000002A
:80278000000000000000000000000000000000000000000000000000000000000000000000000000000000000000000000000000000090FF00000000000000000000000000000000000000000000410000080000000000000000000000000000000000000000000000000000000000000000000000000000000000000000000000000050B1
:80280000FA0000349106000002408308000100000400000000020000680000000004000000000000000000000000000000002000040000D000000000000001000000000010000040030800010000340088F80000300000000000000000000000000000000000000000600000000000000000000000000000000000000000000000000000BE
:80288000C000000000000000000000000000000000000000000000301020FC0000300006010018088100000C04000000000000000000600000000000000000000000000000000000000000006000301000C0000000000000030000000000C00000C0836000000000001088FC0000302140000098000200000C000000000000000000006083
:802900000000000000000000000000000000000000000000002000300000C0000000000000010000000000C04800000060410000001002C0FC0000002220000000010860028000003009000000002100001200000080000000000000000000000000000000008011010200000200000000008C01000000000040000093002400010020106B
:8029800090FF00003C800701001EC40079100F08003C0000000006000018000000000C08000000000000000000000000000000E0013C2000302000000000000F0000000000F00000800078000300000C0020FF0000102006000000000060000000003000000000180000000000000030200000000000000000000000000000008001000033
:802A000000000000000000000C0000000000000000008000000C0000000010FF00002802A6000098040064004C02003000000000980800000000000030020000000000000000000000000000008001300900000000000000000C0000000000C02400000860128C04000021D0FF200014A2000000020000680C01A0010080460000024000F5
:802A8000080000A0010000000000000000000200000000000000010004000000000000000000010000000000100000400008000100000000BCFB000020000000000000006000008001000006040000000000000080010000000000000000000000000000000000000000000000000000000000000000000000000000000000000000000089
:802B00000058FE0000300006000000000060200C84810000060000180800180000C0010000000000000000000000000000000000000030100000000000000000030000000000C00000000060000C04000000F8F90000304116040000000060002C80010000260200180000080000A00100000000000000000000000000000000000000B0A4
:802B8000000000000000000000010000000000C08200000060244C000000009BFB80911021C0000040080000408000000100400400800480604000004400000000000000000000000000000000000000000200000000000000002C100000000000400000080024000000000009FAE0013C8007000006000078000FE80100800700001EC0C9
:802C0000007800006000000000000000000000000000000000000000003C2000000000000000000F0000000000F00000C00079000F0200000000FE8001100000000018000020000000000000020000000003610000000000000000000000000000000000000000000000000000000000000000000C0000000000000000000300000000009B
:802C80000000EBFD8001B01006010018020050210C42840000250800180403600000000000000000000000000000000000000000000000300800000000000000000C0000000000C02000000B62100C0200000080F910000080000000820000680001A00134804204000A4400080000200004200000000000000000000000000000000000C3
:802D000004000010000040000800010000000000100000400308040100000000B0FE000000000000000010000000000000300004000000000000000000000000000000000000000000000000000000000000100000000000000000000000000000008000000000200000000000D0FE00000000060000100000604000800131080602001E90
:802D8000040318000060001000000000000000000000000000000000000020000030000000001800030000000000800000000342000C00000000A8F90C0000004602009004006002008009300006000000002309000000000041000000000000000000000000000000000020090010000000000000010000000000802400001040122C087D
:802E000000000060FF04000000C0000088000000014000040020020800480420600C00804980000000000000000000000000000000000000100200C01800001060142C040000000040080000082004000000000090FA000000800700000E0400782003E2813C8007000014C0037A0000E0010C1000000000000000200000000000000000B3
:802E8000001C0800F00000C0007A000F0000000000702000C0033A100F0200000038F80C00000000000000040000000C02800000020200080000600000800100000000000000000000000000000000000200002000C00000000360000C0000000000008000000300200000000000F0FC00000000160100400000600A2C80098810460000D8
:802F000098108B60000080010010000000000000000A000000000000000000000100C00000002361000C0000000000000000000304022C02000000D0FF30000080000400020000680001A0013400000000024000080000200014080000000000000000000000000000000400040200000000000000000D0000000000D08802400068208D8C
:802F800021000000D0F90000000000000000000060000084010000000000000000000000000000000000000000000010000000000000000800001000000000000000000C0000000000C00000000060000C00000000E8FA000000000400001800006000088001302000000000000318000040003C08000000000000000200000000000000CA
:803000000100200000000000000000000C0000000000000006000301000060000000F0FF0C00000004010058100060004882013001000000000023090000200000000000000000000002000000000000000100204000000000000000000C0000000000402000000B2010240200000048FD84110000120000000100002284008880000000DE
:80308000000000206444008011900800000000000000080000000000000004009020000000000000000040020000000080001804604000888041000008FFE08100800301001E040018000762003C1000000006C403780000E041280000000000000000200000000000000001001C00000000000000000003000000000030201EC00318105A
:8031000003E201000010FC8C010000000000000000601000080000000000001800006000008001100000000000000000020000000000000008000010000000000000000000000000000000001800000000008801000030F880010000000200180500700120400030120000001821A3600000800130220000000000000008000000000000A2
:803180000004000001000000000000000000000000000000841800A30020208001000020FA100000804610001A000028220DA08834800010000240000800002000040000000000000000000000000000000000000480061000004000680001200004800010001A400008008DA1010000C4FB0000000006020000000040000000013000003F
:80320000000000000000000000000000000000000000000800000000000000040000000600000000006000000000000000020018000000000C80010000C0FF0000000000000018040060000C8201300006C240000003180000400030100000000000000000000000000000000000000006000000000371000360000C0004C1001C0003616A
:803280000000C0010000B0FE0C0000001201008000006010408041300026C00000000B0A000020003000010000000000000201000000000000010000000600000000136800010000000014C0481A000B602444B00100004BFF1400000044002240000020042082100040C00018001020642200800900000200000000000050000000000010
:8033000000001000800000C10400000800000C8411300802014800001001042804040100E1FA080000800131001E040078200FE0810C8007F00006C003780000E0413C8804000000000000800200000000000012000C8801F04000C08318200FE0013D8003F00006D0037840036000000088FF0800000000C40018080020000C8240000051
:80338000000120180080600000800100080000000000000010000000000000000000300000C00000008000000C800130000004200000800010000800000033F80000000020C00419000060410C8001080046C008180223600000800130020400000000000040000000000000000000300A00C00000002300000C8001300020C0080000234D
:803400006004200000000038F810000080001000020000680001280014C016100002400068000020000400000000000000001202000000000000080034A000000000400008000D0000348000100002400008000D20000000D8FA00000000000000000000600000000020000602000000006000000000000000000000000000000000000063
:803480000000000000300000000000000000000C0000300000000000000000000000000000E0FA000000000600000600000000080000300000C140000803600000600000900800000000000052020000000000000400000000000000000310000C0000380006C20006000000000C6200000090FD0C0000004602000200000000280400B034
:803500000822C00218010B620000200030020200000000000080000000000000000000100800000000000B0A000C0000340006C0820000000000800000000042F914000000400088181100004044880910022401185804200004008001B00800000000000000920000000000000009002000C60000000008601200000000062000481804EE
:80358000200022808241000018FB080000800734001E0000180007E0413C9001F00006C0031A1000E0810C0002000000000000000100000000000000000C8807000000C08378000302000C8007F4001EC08018000FE0010000E8F80800000000C140180000000000800110100000201800800000008001300000000000000000100000008F
:8036000000000000090000000600000000806000000000000000012018000360000C8001000091F90000000016C0001800001020008401B00040C40280100B000000800100220900000000000000000000000000000800001106000000000B6000000000000016C00218005360114C8401000020F91000008000D0001A400068002DA801E8
:8036800034862010000240036C000120000400000000000000001201000000000000A10134100000001A000008000D000004800614000240030800212800040024FA0000000000000018000000000C80013000000440000003600000000000800200000000000004000000000000008401300000000018000000000C0000000006000000AB
:80370000000000000000000020B8F80000000000C00018000362400080013110048120180080600000600030000000000000000004010000000000008101002000000018000010000C000008000001000400036000084400201068FB0C00000000001418000B6002048211300244800818092160000000003040080000000000000002008D
:8037800000000000008001900000000018000008000C00000400220000020020644128200020016BFF140000002004004104000001080000012202412280041200010084490080000000000000001200000000000000020020420000000004006011800000B0081401029804400004049049101101FF0800008001F00006C0037A20036281
:80380000003C800370001EC080181003E0013C0800000000000000000000000000000065400C0000000006000078000302003C800130201EC003784007E0011C0048F80800000006C0200000000100000000100000008000040000000C80010008000000000000000800000000000000000000000000000000006000000000300000C000DD
:8038800018000300100080010000D3FB0000000046C104000013600A40C485284210020218004000000C81013000000000000000000000000000000000000000100000000000006000000000300020C24418008B60000081010011F0FE2000008000D0005A440000008D200014A200D0821A4060680000A0013400000000000000000000A5
:803900000000000000000000348000000002400308000D0000048000D0000240036800212800040020FA0000000000000018000000000C0400200000C000000000600000800100000000000000000000000000000000000000000000000000000300000C000000000000000000000000000000000048FE0000000006C04000000301000089
:80398000880130000600201C1002600000800138000000000000000000000000000000000000308801000006000018000C00000C0006C20004C00362000840000000C8FC00000000160404080503000084800130401644024200A2600000800104420000000000000010000000000000000800008000000002000000000C000004001600EB
:803A0000420200000014082200000070F98091000040004810000000002880091041C0802418019100020000443009020000000000001001000000000000080000012604009810006414200000300A2000001805130001248051000A30FDE001008007F40006C403020003E4813C8007300004C4011810006000080005000000000000946E
:803A8000020000000000000A003C880700001EC00078000302003C8007F4401E8080781007E2010C0008FF8001000000C1000000000000008801110000010002000000000000000400060000000000001003000000000000080030080600001800006100000000300000C1001800006020008001300070FE8001000026C08800110B040088
:803B00004080093005260044000510040000000080400400000000000008020000000000000400B0000600001800006000000000300026C0281800006101008101300448F9100000000000000000000000000000000000000040000000000000000001000000000000000000000000000000000000000000000000000000000000000000C4
:803B8000000000000000000000000000DCFF20000480001000024000080001200004800010000248000800012000041000000000000000020000000000000021000480001000024000080001200004800010000240000800012000040080FD000000000000000000000000000000000000000000000000000000000000000000000000000E
:803C0000000000000000000000000000000000000000000000000000000000000000000000000000000098FF2C0004800010000240000800012000048000100000400008000120000000000000000000000000000000000000200004800010000240000800012000048000100002400008000120000400C3FC140000000000000000000090
:803C80000000000000000000008008000000000000001100000000000000000000000000000000000000000000000000000000000000000000000000100000000000000059FA280004800010000A4000080001200004800010000A4000280001A0001400000000000000000000000000000000A00004800250000A4000280005A0001480BD
:803D00000010000A4001090001A000040068FD080000000000000000000000000000000000000000000000000000000000000000000000000000000000000000000000000000000000000000000000000000000000000000000000000000A3FC2000048000100002400008000120000480001000024000080001200004000000000000000C
:803D8000000000000000000000200004800010000240000800012000048000100002000008000120000400D8FF00000000000020000000040000000000000000000002000000020000200000000100000000000000000000000000008000000000000000000000000000001000000000020000000000000020FA0000000000000000000015
:803E0000000000000000000000001000000000000000000000000000000000000100000008000000000000000000000000000000000000000000000000000000000000000080FE00000000000000000040000000000010000000000000000000000000000000000000000080000000000010000000000000000000000000000000000000CB
:803E8000000000000000000000000000000058FF00000000000000000000020000000000000000000000000000000000000000000000040000000000000100000000000000000000000000800000000000000080420008000000000000401008FA0000000000000008000000000000000000000000000000000000000000000000000000C0
:803F00000000000000000000000000000000000000000000000000000000000000000000000000000000008098FF00000000000000000000000000000010000000000010000000000002000000000000000000000000000000000000000000000000000200000000000000000000000000000000000000000098FD000000900020000000C1
:803F8000000000000000001000000000100010200040800000000000000000000000000000000000000000000000000000000000040000010000020000000000080102000000F0FF0000000000000008040022000008000100000000000000201004044020000000000000000000000000000000000040000082802000000100100200006C
:8040000000000080000080800000000000000880FE02280010012000021000EA0080092B0110000000000801586129C88005000000000000000000000000000000000000018000148000400020400300800000001200004000022002040000203CF92448000000A001800202000912000910088244001013A3624828430A00000000000067
:80408000000000000000000000000000000000140000000000000209034000040240000200012000040201000028F802400000000000000000000000000004200480000040000A00000800000000000000000000000000000000000000000000000000000000000000020001000480000040004000040800000028FC060000000010000045
:8041000004020040004000000000040004040208100208000000000000000000000000000000000000000000000100000000000000080400002000000000000000000080000080A0FD000000000800000000000000100000000000000000400000000000000000000000000000000000000000000000000000000000000000000000000067
:804180000000000001000000000000000000000050FE000000000000000000000000000000040000000000000000000000000000000000000000000000000000000000000000000000000000000000000000000000200000000012001000000000C8FB0002000000000000000008000000000000000000400000000000000000000000001D
:8042000004000000000000000200000000000010000000000000000000000000000020000000000020000000000060FD10008000000000000000100000002080001000000800000000000000100000200000000000000010000000000000000000000000000000000000000000000000000000000000000000000074FA0000000000020083
:804280000000000000000400200000040000000000010000000008000000000000000000000000000000000000000080000000000200020000000000000000000000000000000000E0FE0000001000000040000000000000000040000000000000020000000000000000000000000000000000000000000000000000000000800000000019
:80430000000000000000000000000000000000000020FF000000200000000200000000000001000000000002000000000100000000000000000000000000000000000020000000000000000000000000040000000000000000000000000000000000C8FA1A00000000000000000000000000000000000000202000000000000000000000B8
:804380000000000000000000000000000000000000000000000000000000000000000000000000000000000000000080FF000000000000000000000000004000000000000000000000000000000000000000000000000000000000000000000000000000000000000000000000000000000000000000000000000000D8FB00000004000027
:8044000000000000080000000000000000000000002001000000000000008000002000000400000000100000040000800000000000000000000000000000000000000000000000000090FF0000000000000000000000000000000000000200000000020000000000000000000000000000000001000000000000080000000000000000003F
:8044800001000000000000000000001000000000000008FC00001000000000000000000010000000200000010080000000000000000000000001000000000000000000000000000000000000000000000000000000000000000000000000000000000038FC08000000000000000000000000000000000000000000000000000000000000A9
:804500000000000000000000000000000000000000000000000000000000001000040000000000000000000100000000C0FB00000000000000000000000000000000000000000000000000000000000000000000000000000000000000000000004000000000000000000000000000000800000000010000000000000018FA000000000010
:804580000000000000000000000000000000000000000800000000000000000000000000000000000000000000000000001000000000000000000000000000000000002000000000000018FC0000000080000000000001100000000000000000000000000000000000000000000008000000000000000000000000000000000000000000D6
:804600000000000000000000000000000000000000000018FF00000000042000000000000000000000000000001000000000000000000000000000000000000000000000000000000000000000000000000000000000000000000000004000000000000098FC0000008000000000000000000000000000000000000000000000000000207B
:8046800000000000000000000000000000000000000000000000000000000000000000000000000000000000000000000018FD00000000000000000000000004000000000040000000000000000000000000000000000020000000000000000000001000000000000000000000008000000200000000010000000000000010FB4000000063
:804700000011000000000000000000000000000000080000000000000000000000000000000000000000000000000000000000000000000000000000000000000100000000100000000000D0FF10000000000000008000800000000240000000000000000000000000400000000000000001000000000400000000000000000000000000A9
:804780000000000000000000000000000000000000000800F0FA00000000000000008000000000000000000000000000000000000000000000000000000010000000000000000800000000000000000000000000000000000000000040000400000000100090FE080000000000000000000000000100000000001000000200000000000032
:804800000000000000000000000000002000000000000000000000000080000000000000000080000000000000000000000080FF00000000000000000400000000400000000001000000000000000000004000000000000000000000000000000000000000000000000080000000000000000000000000020000000200000028FC0001006B
:80488000200000000000000000000100000000400000000100000440000000000000000400200000000000002010000000008000000000800800000000000000002000000020100400000000C8FD080000000040200800801000020000202000000000040040100800002000000000080000000000000000002010800020080001000000FE
:80490000010040000240000002010000400002000002000000A0FB400000100010808202000A0A0104000420022014009000084A03C0000400000000080200100000000000046018200004200006200040001140040800018800044000400012200208000000E8FE0001100086818810001000020000A1020000800400294168088401013D
:80498000010000000010109020000000000C08000000003000010100008369600802014020005C01383802812000480280120088FA00000800020100000000000000000000000000000080001000020000000000000000000020000000000400000000002000000100000001080000000001000001201040002200000200100010FD8000FD
:804A000000008120000400000000004020000000400000000041100082000000000000080040000000000004000000000010000000000004802040000200100002001008040000000400000000F0FA1000000010000000000000002000000000000000000000000000000000000000000000000000000000010000000000008000000000FF
:804A8000000000000000000000000000000000000000000000006CFA00000000000000000000000002000000000A200004008000000000000800000000100000000000000008000000000008000000000000000000000000000001002000000000000100000000D8FE000000800000000000000001000004808000100000000001000000EA
:804B000000800002200000000000400080000000000000000000000000000000000000000000000000000000080000040000040080FB000000000000000400024000000101200000000000000000000000002000000000002000000000000000020000000000000000000000000000000000000000000000000000000000000000E8FE00B8
:804B8000000000000080000000000000000000000000000000000000000000000010000000004000000000000000800000000000000000000000000000000000000000000000000000000120000030FB02000000000002000000000000000000000400000000000000000000000000000000000000000000100000200000000000000000E1
:804C00000000000000000000000000000000000000000000000000E8FC000000000000000400000000000000000001000000000000000000000040800000000000000000000000020000000000000000000080020000000000000000000000400000000A000000006AFF000000000020000000000000000000000000000000000000000034
:804C800000000004000000000000000040000000008000000000000000000000000000000000000000000000008000000000000000D8F9000000000000000004000000000000002000010000000000000000000020000400000000000000000000000000000000040000000000000000000000000000000000000400000000000000A8FAAC
:804D000000000000000000000000200008800000000000000000000000000000000000000000000000000000200000000000000020000000000000000000000000000000000000080000000000000030FF000000000000000000000000000000040000000000000000000000000000000000020000000000000000000000000040000000CE
:804D8000000000000000000000000000000000000080000008000000F0FD00002000000000000000000000000000000100000000000000000000000000000000000000000000000000002000000000000000000000000000000000000000000000002000000000008000FD0000000000100000000000000000000000001000000000000040
:804E00000000000000000000000000000000000000000000000004000000000000000000002010000000000000400300000100000000A8FF0000000000000000000000000000000000000000000000000000000000000000000000000000000000000000000000000000000000000000000000400000000000000003000000000000009838
:804E8000F80000000000C000000000000000000000000030000000000000000000000000000000000000000000000000000000000C00000000000000000000600000000000000000000000020000000080FF0000000000C000000000000000000000000000000000000000000000000000000000000000000000000000000000000000001D
:804F00000000000000000000804100000000000000000000010000000008FE0000000000C0280000000000000000000000C02000000000000000000000000000000000000000000000000000000030080000000000000000004001000000000000001000000C0400000058FB0000000000F0000000000000000000000000F00000000000D5
:804F8000000000000000000000000000000000000000000000000038000000000000000000000001000000000000400002000E0000000098FD0000000000C0000000000000000000000000C00000000000000000000000000000000000000000000000000000000030000000000000000000000001000000000000000300000C00000000D3
:8050000048FF0000000000C0840000000000000000000000C00000000000000000000000000000000000000000000000000000000030000000000000000000008000000000000000000300000D0000000090FA0000000000D000000000000000000000000010000000000000000000000000000000000000000000000000000000000400B7
:80508000001000000000000000204400000000000040030000010000000024FB0000000000C0000000000000000000000000000000000000000000000000000000000000000C00000000000000060000000000000000000000000000000000000000000000000000000000F8F90000000000E0000000000000000000000000300000000006
:805100000000000000000000000000000000080000000000000004000800002000000000000000604000000000000000000100020000000018FF0000000000D000000000000000000000000000000000000000000000000000000000000000000000000000000000000400001000000000000000A0050000000000000003000001000000B4
:80518000001BF80000000000C0000000000000000000000000C020000000000000000000000000000000000000000000000000000000B02000C0020000000000004001000000000000000300000C0000000039FE0000000000E0000000000000000000000000F00000000000000000000000000000000000000000000000000000000038DB
:805200000000E0400000000000000001000000000000400000000E0200000050FA0000000000C0000000000000000000000000C000000000000000000000000000000000000000000000000000000000300000C0000000000000000001000000000000000000000C00000000F3FB0000000000D0000000000000000000000000C000000078
:8052800000000000000000000000000000000000000000000000000000340000D0000000000000008000000000000000000300000C0000000098FB10000000001000000000000000000000000000000200000000000000000000000000000000000000000000000000000400001000000000000000200000000000000040030000010000EE
:80530000000088FF00000000000000000000000000000000000000000000000000000000000000000000000000000000000000000000000000000000000000000000000000000000000000000000000000000098FF0000000000C0000000000000000000000000000006000000000000000000000000000000000000000000000000000049
:805380000800002000000000000000C001000000000000000000000200000000A8FF0C00000000C000000000000000000000000000000000000000000000000000000000000000000000000000000000000400001000000000000000A001000000000000000B01000100000000B8FE1400000000C0280000000000000000000000000018C3
:805400000500000000000000000000000000000000000000000000000000301100C0080000000000004001000000000000000300002C0800000040FC0800000000F000000000000000000000000000001E0000000000000000000000000000000000000000000000000000380000E0200000000000008000000000000000400000000E004E
:8054800000000010FA0800000000C00000000000000000000000000000180000000000000000000000000000000000000000000000000000300000C0000000000000008000000000000000000000000C0000000090F90000000000C08400000000000000000000000000180000000000000000000000000000000000000000000000000061
:8055000000340000C0000000000000000001000000000000000300000D0000000000FF10000000001000004000000000000000000000000000000000000000000000000000000000000000000000000000000400001000000000080000A000000000000000400308000100000000A8FB00000000000000000000000000000000000000001C
:8055800000000000000000000000000000000000000000000000000000000000000000000000006000000001000000000000000000000000000000E8F90000000000C00000C000000000000000000000000000000000000000000000000000000000000000000000000000000800002000000000780000C000000000000000000010000277
:8056000000000000A8FD0C00000000C0000000000000000000000000000000000000000000000000000000000000000000000000000000000004000010000000000000000001000000000000001309000100000000AAFF1400000000C02800008300000000000000000000000000000000000000000000000000000000000000000000005F
:805680000000300200C008000000300000C000000000000000000360208C00000000A0FF0800000000F00000C00300000000000000000000000000000000000000000000000000000000000000000000000000380800E0400000004000004001000000000000400070000E0200000018FB0800000000C000000003000000000000000000D8
:8057000000000000000000000000000000000000000000000000000000000000300000C0000000004000008000000000000000000060000C0000000071F80000000000C08400000300000000000000000000000000000000000000000000000000000000000000000000000000300000D000000000200000000100000000000000036800D1
:805780000C0000000050F930000000001000004003000000000000800000001A00000000000000040000000000000000000000000000000000000400001000000000081100A00100000000000040030800010000000054F80000000000100000000300000000000000000000180000000000000000000000000000000000000000000000A2
:805800000000000000000000000000000000800100000000000000000000000000000030FC60000000003000008003000000000000800100001C000000000000000C0000000000000000000000000000000000000800003000000000181000C00100000000000000001100020000000040FE2C0000000000000040030000000000000000DE
:8058800000001A00000000000000000000000000000000000000000000000000000400000000000000600100A001000000000000002308000100000000D9F89409000000C00800002001000000000000460000000200000000000030080000000000000000000000000000000000B00000C02000000050000000040000000000000003603E
:80590000022C0000000039F8E881000000E02000C0000000000000008007020006000000000000003C000000000000000000000000000000000000380800E0000000004000004040000000000000400070100E0200000020F98801000000C0000000000000000000000006000000000000000000003000000000000000000000000000008C
:8059800000000000300000C0000000004000000000000000000000000060000C00000000BBFB8001000000C00000000000000000000000060000000000000000000030000000000000000000000000000000000000300000C0000000002000000000000000000000000360000C00000000E0FD300000000010000040000000000000000002
:805A000000D0000200000000002000340000000000000000000000000000000000000400001000004000081400A00100000000000040030800010000000018FB000000000000000000000000000000000000C0000000000000000000300000000000000000000000000000000000000000000000000000000000800100000000000000001F
:805A80000000000000000070FC8081000000C00000C0000000000000000000E0000400000000008001380000000000000000000000000000000000000800002000000000181000800100000000000000001000020000000090FD8C01000000C0000000000000000000000000D00002000000000080013400000000000000000000000000D8
:805B0000000000000004000010000000006800008001000000000000004308000100000000F0F91448000000C02800008300000000000000000008980400000000808100200000000000000000000000000000000000300100C0020000035100000004000000000000000360124C0200000088FAE801000000F00000C0030000000000003B
:805B8000000030401E0000000000E0010C000000000000000000000000000000000000380800E02000C0034000006040000000000000400070000E00000000B0FD0800000000C00000000300000000000000000000180000000000800100000000000000000000000000000000000000300000C00000000340000000000000000000000045
:805C00000060000C0000000040FA8081000000C08400000300000000000000000000180000000000800901000000000000000000000000000000000000300000C0000000032000000000000000000000000360000C0000000068FB300000000010000040000000000000000000100002000000000000000400000000000000000000000019
:805C800000000000000004000010000000000810012000040000100000400308000100000000B4FF00000000000000000000000000000000000000000000000000000000000000000000000000000000000000000000000000000000000000000000000000000000000000000000000000000098FF8001010000C0000080000000000000EB
:805D000000000020000400000000000000080000000000000000000000000000000000000C0000300000000018100340000C000030000000001A00030000000010F88C01000000C042004000000000000000000010000200000000000000040000000000000000000000000000000000000000000000000000680200200000000000000080
:805D800000030000000000000071FA144800000000420000930000000000000000C0225804000000000000B0080000000000000000000000000000000000B00800C02200000050000C8149B00000C00200000360114C0000000079FAE801000000F00000C0030000000000000000F0001E000000000000003C0000000000000000000000C3
:805E000000000000000000380000E00000000040000EC001381000E08000400070000E02000000B8FB080000000000200000030000000000000000C000180000000000000030000000000000000000000000000000000000300000C00000000040000C8001300000C00000000060000C0000000023F88011010000C0000000030000000024
:805E800000000000C000180000000000000030000000000000000000000000000000000000300000C00000000020000CA001300000C00000000360000C0000000070F8B05100000010000040000000000000000000100002000000000020000400000000000000000000000000000000000004000010000000000820012000000000100022
:805F00000040810800010000040068FC00000000000000000000000000000000000000000000000000000000000000000000000000000000000000000000000000000000000000000000000000000000000000020000000000000098FD8040000000C0000080000000000000000000200006000000000060000C00000000000000000000C6
:805F8000000000000000000008000020000000001820036000000000300000C00118000300000C0020FE0C05000000C0000040000000000000000000100000000000000000000400000000000000001000000000000000080004000010000000006802000000000000000000400A0400000000000050FE1404000000C0280000A3000000AE
:806000000000000000C0281805000000008001300A0200000000000000010000000000000000300900C00400000050000C8051000000C04400000060042C0200B010D8FE6880000000F00000C0030000000000000000F0001E0000000000C0013D000400000000000010020000000000000800380000E02000000040000EC401000000E017
:806080000000800370200E00003800A8FE0880000000C0000000030000000000000000C000180000000000800130800400000000000050020000000000000800300000C00000000040000C8001000000C00000000060000C0000300098FC0008000000C0840000030000000000000000C00018000000000080013000040000000000000066
:80610000020000000000000000300000C00000000020000CA001000000C00000000360000C0000300040FA100000000000440000000000000000000000000000000000000000000000040000000000000002000000000000000000000000000000000000000000000000000000000000000000000000ACFB200004800000000240000800D8
:8061800001200004800010000240000800012000040000000000000000000000000000000020000080000000024000080001800004800010000240000000002000040070FC000000000000000000000000000000000000000000000000000000000000000000000000000000000000000000000000000000000000000000000000000000AA
:8062000000000000000000000000000098FF2C000480001010024000080001200004800010000240000800012000040000000000000000000000000000000020000490001084024000080001200004800010000240000842012400040003FE14000000000004000000000000000000000000000000000000000090000000000000000000A4
:806280000000000000000000000000200000800000000040000800012000008000001004400008000020CDFEA8000480001040024001080001200004800250000A4000080001A000140000000000000000000000000000000020001080004000024000000004000010800040000200012000042000100072F9080000000000000000000039
:8063000000000000000000000000000000000000000000000000000000000000000000000000000000000000000000000000000000000000000000000000000000000000B2FD2000048000101002400008000120000480001000024000080001200004000000000000000000000000000000002000048000100002400008200120800480F9
:806380000010000240000800012000040000FD00000000001000000000000000000000000000000000000000000000800000000000000000000000000000000000000000000001000000000000000000000000000000000000000000000080FF00000000000000000000000000000000000000000000000000000000000000000000000011
:8064000000000000000000000000000000000000000000000000000000000000000000000000000000000098FF400200000000000000000000000000000000000000000000000000000000000000000000000000000000000000000000000000000000000000000000000000000000000000000000000000D8FD000000000000000000006E
:80648000000000000000000000000000000000000000000000000000000000000000000000000000000000000000000000000000000000000000000000000000000000000098FF0000000000000000000000000000000000000000000000000000000000000000000000000000000000000000000000000000000000000000000000000005
:80650000000000000000000000000000008054FB0A0000000000000000000000000000000000000000000000000000000000000000000000000000000000000000000000000000000000000000100000000000000000000100000000000000A0FC000000100000000000000000000400000000000008000040000000000000000000000039
:806580000000000000000000000000000000000000000000000000000000000000000000000000000000000008FF00000000000020000000000000000000200000000000001000080000000000000000000000000000000000000000000008000000000000000004004000000000000000800000000000000050FC00000010140080000080
:80660000000000000400002000001404000018000100000000000000000000000000000000000000000000200C00000000000000050028010000000000000A0200000000000028F904000004108000000401000000000000000000201000000008000000000000000000000000000000000000000000000000000000000000000020002029
:8066800001000000000000020500000000000018FD000000000000000010010000000000000000002000000000000000000000000000000000000000000000000000000000000000000000000000000000000000000000000000000000000000A8FD0400000400400000000000000000000000000000040000000800000000000000000053
:80670000000000000000000000000000000000000000000000000000004000000000000000010000000000008058FE00000000000000000000000000000000000000000000000000000000000000000000000000000000000000000000000000000000000000000000000000000000000000000000000000000098FF00000000000000006B
:806780000000000000000000000000000000000000000000000000000000000000000000000000000000000000000000000000000000000000000000000000000000000000000098FF000000000000000000000000000000000000000000000000000000000000000000000000000000000000000000000000000000000000000000000002
:806800000000000000000000000000000000000098FF100000000000000000000000000000000000000000000000000000000000000000000000000000000000000000000000000000000000000000000000000000000000000000000000000000CCFB000000000000000000000000000000000000000000000000000000000000000000AA
:8068800000000000000000000000000000000000000000000000000000000000000000000000008000000000000010FF00000000000040000000000000000000000000000000000000000080000000000000000000000000000000000000000000000000000000000000000000000000000000000000000000000058FF00000000000000F2
:80690000000000000000000000000000000000000000000000000000000000000000000000000000000000000000000000000000000000000000000000000000000000000000000098FF1000000000000000000000000000000000000000000000000000000000000000000000000000000000000000000000000000000000000000000070
:80698000000000000000000000000000000000000088FF00000000008000000000000000000000000000000000000000000000000000000000000000000000000000000000000000000000000000000000000000000000000000000000000000000010FF00000000000000000000000000000000000000000200000000000000000000007F
:806A000000000000000000000000000000000000000000000000000000000000000000000000000000000000000000B8FF00000000000000000000000000000000000000000000000000000000000000000000000000000000000000000000008000000002008000000120000480000000020000000001200000800070FC000000000000A9
:806A800000000000000000000000000000000000000000000000000000000000000000000000000000000000000000008000000000000000000000000000000000000400000000000050FF000000000000000000000000000000000000000000000000000000000000000000000000000000000000000000000000000000000000001000B3
:806B000000000000000000000000000000020000000088FC00000000000000008000000000000000000000000000000000000000000000000000000000000000000000000000000000000000000000000000000000000000000000000000000000000010FF0000000000000000000000000000000000000000000000000000000000000000
:806B8000000000000000000000000000000000000000000000000000000000000000000000000000000000000000000098FF00000000000000000000000000000000000000000000000000000000000000000000000000000000000000000000000000000000000000000000000000000000000000000000000000000098FF000000000067
:806C00000000000000000000000000000000000000000000000000000000000000000000000000000000000000000000000000000000000000000000000000000000000000000000000098FF00000000000000000000000000000000000000000000000000000000000000000000000000000000000000000000000000000000000000007D
:806C800000000000000000400000000000000000000000D8FF00400000000000000000000000000000000800000000000000000000000000000000000000000000000000000000000000000000000000000000000000000000000000000000000000000058FB400000000000000000000000000000000000000000000000000000000000A2
:806D0000000000000000000000000000000000000000000000000000000000000000000000000000000400000000000000D8FB02000000004000000000000000000000000000000000000000000000000000000000000000000000000000000000004000000000000000800000000200000000000000000000100000000080FC00000000AC
:806D80000040000000000000000000000000000000000000000000000000000000000000000000000000000000000000000000400000000000000000000000000000000000200000000000F8FB0000000000000000000000000000000000000000000000000000000000000000000000000000000000000000000000000000000000000000
:806E0000000000000000000000000000000000000000000098FF100000000000000000000000000000000000000000000000000000000000000000000000000000000000000000000000000000000000000000000000000000002000000A0000000000000020FF0E00000000000000000000000000000100000100004000000000200000B2
:806E80000000000000000000000000000000000000000000004000000000200000000000000000000000000000000000008018FD16000000020000000000000000000000000000000000000008000000000000000000000000000000000000000040001000000020000000001000000000000040000000812000040000008062FE003310F5
:806F000086008101000300C00080018000000002000080000040004000100500000000000000000000000000000020000400002080000000504B04000500000010000040000A000100000000F0FD0040C800321080000000020000000000000200000202010000000020A000000000000000000000000000000000000000000000000002E9
:806F8000012A4802800501000020000000421000080000080058FD00800000010000000000000000000000000400000080000000000000000000000000000000000000000000000000000000000000000002200000400000000000000000000000000000000010FA0000000000000000000000000000000000000000000800000000004006
:80700000100000000000000000000000000000000000000000000000000800001000800000000000000000810000040000000040FA10000000000000000000000000000000000000000000000000004000000000000000000000000000000000000000000000000000000000000000000000000000000040800000000000000084FF000412
:8070800000000000000000000000000000000000000000000000000000000000000000000000000000000000000000000000000000000000000000010000200000000000000000000000000000A8FA0000000000000000000000000000000000000000000000000000000000000000000000000000000000000000000000000000000000CD
:807100000000000000000000000000000000000000000100000088FF00010000000000000000000000000000000000000000000000004000000000000000000000000000000000000000000000000000000000000000000000000000000080000000000000000018FA0E0100000000000000000000000000000000000000000000000000A5
:807180000000000000000000000000000000000000000000000000000000000000000000000000000000000000100000000010804AFA00000000000000000000000000000000000000000000000000000000000000000000000000000000000000000000000000000000000000000000000000000000000000000000000000000098FF0014
:80720000000000000000000000000000000000000000000000000000000000000000000000000000000000000000000000000004000000000000000000000000000000000000000400000000000098FB040000000000000000000000000000000000000000000000000000000000000000000000000000000000000000000000000000006F
:807280000000000000000000000000000000000000000000000000D8FB00000000000000000000000000000000000000000000000000000000000000000000000000000000000000000000000000000000000000000000000000000000000000000000000000000098FF0000000000800000000000000000000000000000000000000000A4
:807300000000000000000000000000000000000000000000001000000000000000000000000000000000000000000000000000000010FE08000000000000000000000000000000000000010000000000000000000000000000000000000000000000000000000000000000000000000000000000000000000000000000000000008018FE50
:80738000000000000000000000000000000000000000000000000000000000000000000000000000000000000000000000000000000000000000000000000000000000000000000000000000000000BAFD20000080060000004000080001000034920010000040000002410208040000000000000000000000000000000000008488001064
:80740000040000006800010000008000000002040008000000000000C0FE00000000060000000000000000000030000000000000000840002000010000000000000000000000000000000000000000000020000000000000000000000000000000000000000000000048FA800100000000000000006020000000308001C000000000580088
:807480000868010C000000000000000000000000000000000000209001804000000060100C040000000000000804000000000000000030FC800501000000000000006001000000302100C084000000200048800004000000000000000000000000000000000000208000800400000000020C0000000000000000000000000000000000C08C
:80750000FB00100000C0000000009300122C020000014601080000805000244801B000000000000000000000000000000000000010011640020000000002200800000046000040040060010000000000C8FDE081008001000000C00378000F00003CA007F04000C00040000700013C1000000000000000000000000000000000001C9007A7
:80758000748000000078100F0000008007020016000078200000000000B8FA0000000000000000000300000C000010000600000000035040004001300000000000000000000000000000000000000020060000000000601000000000000600000004006000000000000090FB8049000001020000000360120C0000284206C024000023247B
:807600000140848030000000000000000000000000000000000000800006000401000060044C0200000006000010010060000000000000F8FB2000048000D0001A400308000100001401000000024000000241040884100000000000000002000000000000000100041000D0001B0000080401200000000010000200000000000000000099
:807680000CFB0000000000C00018000300000000002020000000000000084000200001000000000000000000000000000000000000000000C000180000002000000000000000000000000000000000000068FF8001300000C0001800036200000000301000000018080358000860012000000000000000000000000000000000000020004E
